:02000000702D61
:0400060000000800EE
:10000A00103083120313FD00FD0B092800000800BD
:10001A00083083120313FC002330FD00FD0B132864
:06002A00FC0B1328080086
:1000300083160313EB1B1F288312861121288312BA
:10004000861583166B1B2728831206112928831215
:1000500006158316EB1A2F28831286103128831277
:10006000861483166B1A37288312061039288312D8
:1000700006146F183D2806163E2806128616032021
:1000800086128316EB19472883128611492883129A
:10009000861583166B194F28831206115128831277
:1000A00006158316EB1857288312861059288312D9
:1000B000861483166B185F2883120610612883123A
:1000C00006146F1865280616662806128616032081
:0E00D00086126F1C6D280D206E28052008007A
:1000DE00831203136F1083166A08EB0018206F1437
:0200EE00080008
:1000F00083120313F8010830FC00700DF80D74082A
:10010000F80203188528F8070310F00DFC0B7D2872
:020110000800E5
:1001120083160313E801033068020318972868085E
:100122006707840020308000E80A8C286808670787
:1001320084008001E80368086707E9000A30F400D8
:100142006608F00078207808F0003030F007831657
:1001520069088400700880000A30F4006608F00024
:10016200782070088316E6007008003A031DBA284A
:08017200BC28E8039C280800EA
:10017A00CF28803083160313E600E228C030E60059
:10018A00E2289430E600E228D430E600E228803003
:10019A00E600E228831603136608013A0319BE280B
:1001AA006608023A0319C3286608033A0319C628DF
:1001BA006608043A0319C928CC286703F0006608C0
:1001CA00F0077008E6007008EB0018206F1083161D
:1001DA00E90169086807840000080319FD2869080D
:1001EA00680784000008EA006F208316E90AEE28EF
:0601FA0083126F140800DF
:0E020000831603134A088A004908820008008A
:10020E0083120313F801F9011030FC00710DF80D83
:10021E00F90D7408F8027508031C750FF90203181E
:10022E001F297408F80775080318750FF9070310CE
:0A023E00F00DF10DFC0B0D29080076
:1002480083120313FB01FA01F9018030F800F10C65
:10025800F00C031C38297408F90775080318750F82
:10026800FA070318FB0A0310F01F40297408FA075D
:1002780075080318750FFB07FB0CFA0CF90CF80C42
:10028800031C2B297B08F3007A08F2007908F10097
:060298007808F0000800E8
:10029E00831203137008F100F0010830FC0071089E
:1002AE00F40C03185E29FC0B5729F10100340310DE
:1002BE006329F40C0318F107F10CF00CFC0B602908
:0202CE00080026
:1002D000013083160313EB0018200C308316EB005B
:1002E00018202E2A83123F088316E600DF30E7002D
:1002F00089200130E6000D30E700DF30E800BD2046
:100300002D088316E600DF30E70089200230E60082
:100310000D30E700DF30E800BD2001308316E60035
:100320000130E7002030E800BD2002308316E600EF
:100330000130E7003430E800BD2001308316E600CC
:100340001030E7003D30E800BD2002308316E600A3
:100350001030E7002E30E800BD20482A0130831617
:10036000E6000730E7003030E800BD200230831699
:10037000E6000230E700A030E800BD20482A013046
:100380008316E6000330E700AF30E800BD20482ABE
:1003900001308316E6000330E7005930E800BD2045
:1003A00002308316E6000130E7006730E800BD2028
:1003B00002308316E6001030E700BD30E800BD20B3
:1003C00040088316E600DF30E70089200230E600AF
:1003D0000D30E700DF30E800BD20482A01308316E9
:1003E000E6000430E700BF30E800BD20023083168D
:1003F000E6000130E7006A30E800BD2002308316D5
:10040000E6001030E7006D30E800BD20410883169B
:10041000E600DF30E70089200230E6000D30E7001B
:10042000DF30E800BD20482A01308316E60007309F
:10043000E7004730E800BD2002308316E6000230B6
:10044000E7004830E800BD20482A01308316E60066
:100450000730E7004230E800BD20482A83165E08D6
:10046000493A031972295E08453A0319AE295E0814
:10047000433A0319BF295E08543A0319C8295E0894
:10048000483A0319EE295E08583A0319142A252A16
:02049000080062
:10049200831603178C1C4F2A0000492A03135E0897
:1004A200831203178D00831603135F088312031749
:1004B2008C0083168C130C150B08F0008B1355302F
:1004C2008D00AA308D008C14F01B692A8B136A2AC6
:0604D2008B170C1108005D
:1004D80083160313E201E301E401E501E401E50108
:1004E80061086502031D7A2A600864020318AA2AB3
:1004F800831205148316E201E3015F086302031DFA
:10050800872A5E0862020318952A0230FC004B30E5
:10051800FD00FD0B8D2AFC0B8D2AE20A0319E30A64
:10052800812A831205108316E201E3015F08630242
:10053800031DA02A5E0862020318A62AE20A03190C
:0E054800E30A9A2AE40A0319E50A742A080055
:1005560083160313CB01CC018312081FA22B83162B
:10056600CB01CC0183120313081FA22B0D30FC0014
:10057600FB30FD00FD0BBD2AFC0BBD2A0000000070
:100586008316CB0A0319CC0A00304C02031DCD2A70
:1005960064304B02031CA12B4330DE006821F4308B
:1005A60083160313DE000130DF000130E000003067
:1005B600E1006C22CB01CC018312081FE32ADF2A5B
:1005C600003083164C02031DEA2A02304B02031840
:1005D600922B00304C06031DF22A00304B06031DF9
:1005E600F82A5430DE006821052B003083160313E9
:1005F6004C06031D002B01304B06031D052B48300E
:10060600DE00682183120313881F3F2B0230FB0094
:100616000430FC00BA30FD00FD0B0F2BFC0B0F2B3A
:10062600FB0B0F2B0000003083164C06031D1D2B01
:1006360000304B06031D2A2B32308312400203186A
:10064600252BC00A54308316DE0068213E2B00306D
:10065600831603134C06031D322B01304B06031D74
:100666003E2B5A308312410203183A2BC10A4830F6
:100676008316DE0068218B2B83120313881E792BC9
:100686000230FB000430FC00BA30FD00FD0B492BA4
:10069600FC0B492BFB0B492B0000003083164C0644
:1006A600031D572B00304B06031D642B8312400895
:1006B600003C03185F2BC00354308316DE0068210C
:1006C600782B0030831603134C06031D6C2B013068
:1006D6004B06031D782B83124108143C0318742B18
:1006E600C10348308316DE0068218B2B8312031367
:1006F600081F8B2B081F802B7D2B64308316DE0092
:100706000030DF000130E0000030E1006C228C2B6D
:10071600052B83160313CB0A0319CC0AE32A0230EE
:10072600DE00831240088316DF00492203300313DC
:10073600DE00831241088316DF004922B52A08002D
:1007460083160313D501D601D701D801D901DA01E1
:100756000A30DB000030DC008312BF01AD018316D6
:100766000810831208140630FD00FD0BB82B00009C
:1007760008101830FC005F30FD00FD0BC02BFC0B91
:10078600C02B08140730FD00FD0BC72B8316081479
:100796000330FD00FD0BCD2B8312081CD52BFF303B
:1007A600F000E02C1A30FD00FD0BD72B00000818D6
:1007B600DF2BFF30F000E02C1A30FD00FD0BE12BA3
:1007C60000008316D501053055020318282CD601E2
:1007D600083056020318262C83120818F32BEF2B29
:1007E6000930FD00FD0BF52B00000000081C0C2C49
:1007F60083165508CC3EF300730884000008F20007
:100806007208F000F00D7010701473088400700800
:100816008000831208181F2C83165508CC3EF3005F
:10082600730884000008F2007208F000F00D7010E2
:1008360073088400700880008312081C232C1F2C68
:100846008316D60AEB2BD50AE62B0810831208145A
:1008560083164D084C07F000F1010318F10A4E0803
:10086600F0070318F10A4F087007F2007108031821
:10087600013EF30000307306031D432C5008720638
:10088600031DDE2C4C08D700D8014E08D900DA012A
:100896000A30DB000030DC00D501023055020318B7
:1008A600882C5508D13EDD005B08F4005C08F50095
:1008B6005708F0005808F100072183165D088400E8
:1008C600700880005508D13E84000008F000003012
:1008D600F1005B08F4005C08F5002421700883161B
:1008E600D702031CD8037108D8020A30F40000307E
:1008F600F5005B08F0005C08F1000721700883161C
:10090600DB007108DC00D50A502C0A30DB00003011
:10091600DC000230D500043055020318C62C5508F9
:10092600D13EDD005B08F4005C08F5005908F000D4
:100936005A08F100072183165D08840070088000BC
:100946005508D13E84000008F0000030F1005B0835
:10095600F4005C08F500242170088316D902031CF4
:10096600DA037108DA020A30F4000030F5005B0899
:10097600F0005C08F100072170088316DB0071089F
:10098600DC00D50A8E2C5308F0000A30F4004F2103
:100996008316540870078312BF0083165108F000AF
:1009A6000A30F4004F218316520870078312AD00F7
:0C09B6000130F000E02CFF30F0000800E1
:1009C200831603134B08831203178D0083168C13AF
:0A09D2000C1483120C08F00008005A
:1009DC008316031386120612061086100611861152
:1009EC0083128612061286110611861006100D202F
:1009FC000D200D20861406148616032086120D2059
:100A0C008616032086120D208616032086120D20D2
:100A1C0006108616032086120D20861603208612D9
:100A2C00861086158616032086120D208611061454
:100A3C0086160320861206108616032086120D20B9
:100A4C0086160320861206148616032086120D20A5
:100A5C0006108616032086128615061586140614B3
:0C0A6C008616032086120D206F1408006F
:100A7800831203133F084006031D452D08118810F3
:100A8800522D40083F0203184C2D08158810522D8E
:100A98003F0840020318522D081188142D084106FA
:100AA800031D582D8811632D41082D0203185E2D52
:100AB8008815632D2D0841020318632D881108003D
:100AC80000218A110A128000840AC90A0319CA0A75
:080AD800F003031D642D08006A
:100AE00060268316031788018901E030031388000C
:100AF00085018312850101308800EE240C308316B5
:100B0000EB00182002308316CB00E1247008031399
:100B1000C00003308316CB00E12470080313C1002A
:100B200058308316DE000230DF000130E000003074
:100B3000E1006C2283160130CB00A3238312031340
:100B40007008013A031DA92D49308316DE00682183
:100B5000C62D453083160313DE006821C830831686
:100B60000313DE00DF010330E0000030E1006C22FF
:100B70000330FB008A30FC005530FD00FD0BBE2D1C
:100B8000FC0BBE2DFB0BBE2D0000000003138312D7
:100B9000D701D80103305802031DD02DE830570289
:100BA0000318E02D0230FC004B30FD00FD0BD62D6C
:100BB000FC0BD62DAB223C25D70A0319D80ACA2D27
:040BC0009A2DE12D5C
:100CC000203084004A3083120313F000E73083168B
:100CD000C9000530CA006425A03084001D30F00032
:100CE00031308316C9000630CA0064256A3084009A
:100CF0000530F0005A308316C9000630CA0064255A
:100D0000BD3084000C30F0004E308316C900063030
:060D1000CA006425080082
:100BCE00543445344D345034453452344134543415
:0A0BDE005534523441343A340034E7
:020BE8000034D7
:040BEA00253400347A
:080BEE005B3458345D3400341F
:100BF600483455344D3445344434413444343A341D
:020C06000034B8
:040C0800433400343D
:020C0C000034B2
:020C0E000034B0
:020C10000034AE
:0A0C12004E3455344C344C34003499
:020C1C000034A2
:100C1E004534523452344F345234203445344E34E9
:0E0C2E002034443448345434313431340034EA
:040C3C00003400344C
:100C40002D34543445344D345034453452344134C9
:0C0C500054345534523441342D340034F7
:060C5C003C343E3400347C
:100C62004534523452344F345234203445344E34A5
:0E0C72002034443448345434313431340034A6
:100C800043344F344E344634493447345534523467
:0C0C90004134433449344F344E340034B6
:040C9C0043340034A9
:100CA0002D34483455344D3445344434413444347F
:040CB0002D340034AB
:060CB4003C343E34003424
:040CBA0025340034A9
:04400E00F22F000786
:00000001FF
