:02000000432E8D
:0400060000000800EE
:10000A00083083120313FC002330FD00FD0B0B287C
:06001A00FC0B0B2808009E
:10002000103083120313FD00FD0B1428000008009C
:1000300083120317901B1E2886111F288615101B7C
:100040002328061124280615901A28288610292806
:100050008614101A2D2806102E2806148316031352
:100060004B18352883120616372883120612861677
:1000700003208612031790193F2886114028861501
:10008000101944280611452806159018492886108D
:100090004A28861410184E2806104F280614831676
:1000A00003134B185628831206165828831206127B
:1000B00086160320861283164B1C602805206128B3
:0400C0001020080004
:1000C40083120313F8010830FC00700DF80D740856
:1000D400F80203186F28F8070310F00DFC0B6728CB
:0200E400080012
:1000E600831603134B106F08831203179000182012
:0600F60083164B14080004
:1000FC009028803083160313EB00A328C030EB004C
:10010C00A3289430EB00A328D430EB00A328803034
:10011C00EB00A328831603136B08013A03197F28FD
:10012C006B08023A031984286B08033A03198728D1
:10013C006B08043A03198A288D286C03F0006B08AD
:10014C00F0077008EB00700883120317900018205A
:10015C0083164B10EE016E086D078400000803191E
:10016C00BF286E086D0784000008EF007320EE0AAC
:06017C00B1284B1408003D
:10018200831603139818C7280000C1286B0883122E
:0401920099000800C8
:1001960083160313ED0103306D020318D9286D0889
:1001A6006C07840020308000ED0ACE286D086C07AD
:1001B60084008001ED036D086C07EE000A30F40040
:1001C6006B08F00062207808F0003030F0078316E4
:1001D6006E088400700880000A30F4006B08F00096
:1001E600622070088316EB007008003A031DFC2895
:0801F600FE28ED03DE280800DD
:1001FE0083120313FB01FA01F9018030F800F10CB0
:10020E00F00C031C13297408F90775080318750FF1
:10021E00FA070318FB0A0310F01F1B297408FA07CC
:10022E0075080318750FFB07FB0CFA0CF90CF80C8C
:10023E00031C06297B08F3007A08F2007908F10006
:06024E007808F000080032
:0E025400831603134A088A0049088200080036
:10026200831203137008F100F0010830FC007108DA
:10027200F40C03184029FC0B3929F1010034031056
:100282004529F40C0318F107F10CF00CFC0B422980
:02029200080062
:1002940083160313E501630884000008E40064087E
:1002A400003A031960296408EB00C1208316E50AAB
:0E02B4006508630784000008E4005129080073
:1002C200831603178C1C6729000061290313630836
:1002D200831203178D008316031364088312031716
:1002E2008C0083168C130C150B08F0008B13553001
:1002F2008D00AA308D008C14F01B81298B1382296A
:060302008B170C1108002E
:1003080083160313E701E801E901EA01E901EA01BB
:1003180066086A02031D9229650869020318C22942
:10032800831205148316E701E80164086802031DB7
:100338009F29630867020318AD290230FC004B307F
:10034800FD00FD0BA529FC0BA529E70A0319E80AFE
:100358009929831205108316E701E80164086802E9
:10036800031DB829630867020318BE29E70A0319A1
:0E037800E80AB229E90A0319EA0A8C290800EA
:1003860083120313F801F9011030FC00710DF80D0A
:10039600F90D7408F8027508031C750FF9020318A5
:1003A600DB297408F80775080318750FF907031099
:0A03B600F00DF10DFC0BC929080041
:1003C000013083120317900018200C30031790009F
:1003D0001820952A831257088316EB00E430EC00AE
:1003E000CB200130EB000D30EC00E430ED007E203E
:1003F000831256088316EB00E430EC00CB20023069
:10040000EB000D30EC00E430ED007E200130EB001D
:100410000130EC006330ED007E200230EB00013053
:10042000EC005A30ED007E200130EB001030EC0083
:100430005830ED007E200230EB001030EC005430DC
:10044000ED007E20AF2A0130EB000730EC003D309C
:10045000ED007E200230EB000230EC002E30ED008B
:100460007E20AF2A0130EB000330EC002030ED009D
:100470007E20AF2A0130EB000330EC004630ED0067
:100480007E200230EB000130EC004330ED007E2096
:100490000230EB001030EC004130ED007E202008EF
:1004A000EB00E430EC00CB200230EB000D30EC0030
:1004B000E430ED007E20AF2A0130EB000430EC0088
:1004C000AE30ED007E200230EB000130EC00AB30AE
:1004D000ED007E200230EB001030EC00A930ED0082
:1004E0007E204808EB00E430EC00CB200230EB002B
:1004F0000D30EC00E430ED007E20AF2A0130EB003F
:100500000730EC00C730ED007E200230EB000230F7
:10051000EC00B830ED007E20AF2A0130EB00073050
:10052000EC00A430ED007E20AF2A83166308493A20
:100530000319EA296308453A0319232A6308433A51
:100540000319322A6308543A03193A2A6308483ACD
:1005500003195C2A6308583A03197E2A8D2A080079
:10056000831603132308003A031DEA2A831257084F
:1005700083162006031DC02A831208118810D12A71
:1005800083162008831257020318C92A08158810F9
:10059000D12A5708831620020318D12A8312081182
:1005A00088148312560883164806031DDA2A83121C
:1005B0008811E92A83164808831256020318E22A92
:1005C0008815E92A5608831648020318E92A831277
:0E05D0008811EE2A8312881108118810080085
:1005DE00543083160313CC003030CD003030CE00B3
:1005EE004130CF003030D0003030D1004830D20012
:1005FE003030D3003030D4004230D5003030D60009
:10060E003030D7005330D8003030D9003030DA00D7
:10061E003030DB004530DC003030DD003030DE00C5
:10062E000A30DF000D30E000E1010A30F4008312E1
:10063E005708F000622070088316E2006208F0008E
:10064E000A30F400312170085702F0003030831662
:10065E006207CD0030307007CE000A30F40020085B
:10066E00F000622070088316E2006208F0000A3083
:10067E00F4003121700883162002F000303062073A
:10068E00D00030307007D1000A30F40083125608C3
:10069E00F000622070088316E2006208F0000A3053
:1006AE00F400312170085602F000303083166207D4
:1006BE00D30030307007D4000A30F4004808F00040
:1006CE00622070088316E2006208F0000A30F4001F
:1006DE003121700883164802F00030306207D600D0
:1006EE0030307007D700003083128818013083161F
:1006FE00D9003030D9070030831208190130831623
:10070E00DA003030DA070030831288190130831690
:10071E00DB003030DB070A30F4002308F0006220E3
:10072E0070088316E2006208F0000A30F4003121EE
:10073E00700883162302F00030306207DD0030307F
:0C074E007007DE00CC30E3004A210800F8
:10075A0083160313CC01CD018312081F8C2C831638
:10076A00CC01CD0183120313081F8C2C0D30FC0021
:10077A00FB30FD00FD0BBF2BFC0BBF2B0000000064
:10078A008316CC0A0319CD0A00304D02031DCF2B64
:10079A0064304C02031C8B2C4330E300E021F4301C
:1007AA00E3000130E4000130E5000030E600842176
:1007BA00CC01CD018312081FE32BDF2B00308316F7
:1007CA004D02031DEA2B02304C020318802C003024
:1007DA004D06031DF22B00304C06031DF82B543036
:1007EA00E300E021032C00304D06031DFE2B0130EF
:1007FA004C06031D032C4830E300E0218312881FB6
:10080A00362C0230FB000430FC00BA30FD00FD0B30
:10081A000C2CFC0B0C2CFB0B0C2C00000030831650
:10082A004D06031D1A2C00304C06031D252C3230B0
:10083A0020020318212CA00A5430E300E021352CB1
:10084A0000304D06031D2B2C01304C06031D352CA0
:10085A005A3048020318322CC80A4830E300E02113
:10086A007A2C8312881E692C0230FB000430FC00AB
:10087A00BA30FD00FD0B3F2CFC0B3F2CFB0B3F2C31
:10088A000000003083164D06031D4D2C00304C0627
:10089A00031D582C2008003C0318542CA003543084
:1008AA00E300E021682C00304D06031D5E2C013068
:1008BA004C06031D682C4808143C0318652CC80311
:1008CA004830E300E0217A2C8312081F7A2C081F93
:1008DA006F2C6C2C64308316E3000030E400013086
:1008EA00E5000030E60084217B2C032C8316CC0A19
:1008FA000319CD0AE32B0230E3002008E40061214A
:10090A0003300313E3004808E4006121B72B080011
:10091A0083160313D501D601D701D801D901DA010B
:10092A000A30DB000030DC008312D701D6018316BF
:10093A000810831208140630FD00FD0BA22C0000DB
:10094A0008101830FC005F30FD00FD0BAA2CFC0BD0
:10095A00AA2C08140730FD00FD0BB12C83160814CD
:10096A000330FD00FD0BB72C8312081CBF2CFF308F
:10097A00F000CA2D1A30FD00FD0BC12C000008182A
:10098A00C92CFF30F000CA2D1A30FD00FD0BCB2C0C
:10099A0000008316D501053055020318122DD60121
:1009AA00083056020318102D83120818DD2CD92C92
:1009BA000930FD00FD0BDF2C00000000081CF62C9E
:1009CA0083165508CC3EF300730884000008F20031
:1009DA007208F000F00D701070147308840070082B
:1009EA00800083120818092D83165508CC3EF3009F
:1009FA00730884000008F2007208F000F00D70100D
:100A0A0073088400700880008312081C0D2D092DBC
:100A1A008316D60AD52CD50AD02C081083120814AE
:100A2A0083164D084C07F000F1010318F10A4E082D
:100A3A00F0070318F10A4F087007F200710803184B
:100A4A00013EF30000307306031D2D2D5008720677
:100A5A00031DC82D4C08D700D8014E08D900DA0169
:100A6A000A30DB000030DC00D501023055020318E1
:100A7A00722D5508D13EDD005B08F4005C08F500D4
:100A8A005708F0005808F100C32183165D08840056
:100A9A00700880005508D13E84000008F00000303C
:100AAA00F1005B08F4005C08F500FF20700883166B
:100ABA00D702031CD8037108D8020A30F4000030A8
:100ACA00F5005B08F0005C08F100C321700883168A
:100ADA00DB007108DC00D50A3A2D0A30DB00003051
:100AEA00DC000230D500043055020318B02D550839
:100AFA00D13EDD005B08F4005C08F5005908F000FF
:100B0A005A08F100C32183165D088400700880002A
:100B1A005508D13E84000008F0000030F1005B085F
:100B2A00F4005C08F500FF2070088316D902031C44
:100B3A00DA037108DA020A30F4000030F5005B08C3
:100B4A00F0005C08F100C32170088316DB0071080D
:100B5A00DC00D50A782D5308F0000A30F400312160
:100B6A008316540870078312D70083165108F000C1
:100B7A000A30F40031218316520870078312D60016
:0C0B8A000130F000CA2DFF30F000080020
:100B96002A218A110A128000840AC90A0319CA0A7C
:080BA600F003031DCB2D080034
:100BAE00831603134C08831203178D0083168C13C0
:0A0BBE000C1483120C08F00008006C
:100BC800831603139816903083129800831687179C
:100BD800071383128C1EF32D1A08F000ED2D080060
:100BE8008316031386120612061086100611861144
:100BF8008312861206128611061186100610052029
:100C08000520052086140614861603208612052062
:100C180086160320861205208616032086120520D4
:100C280006108616032086120520861603208612D3
:100C3800861086158616032086120520861106144E
:100C480086160320861206108616032086120520B3
:100C5800861603208612061486160320861205209F
:100C680006108616032086128615061586140614A5
:0E0C7800861603208612052083164B140800F2
:100C860038278316031788018901E030031388008B
:100C960085018312850101308800F4250C3083120A
:100CA60003179000182002308316CC00D725700851
:100CB60083160313A0000330CC00D72570088316D3
:100CC6000313C800193099001815E4255830831607
:100CD600E3000230E4000130E5000030E600842144
:100CE6008D24831203137008013A031D802E4930A8
:100CF6008316E300E021A3019C2E83164530E30012
:100D0600E0210130A300C830E300E4010330E50030
:100D16000030E60084210330FB008A30FC005530A9
:100D2600FD00FD0B942EFC0B942EFB0B942E000065
:100D36000000EF22A101A20103302202031DA52E0D
:100D4600E83021020318B72E0230FC004B30FD00BC
:100D5600FD0BAB2EFC0BAB2EAD23B022831603137B
:0C0D6600A10A0319A20A9F2E732EB82EBA
:100E700020308400503083120313F000BE308316FC
:100E8000C9000630CA00CB25A03084002930831267
:100E90000313F0000E308316C9000730CA00CB25BB
:020EA000080048
:100D7C0043344F344E34463449344734553452346A
:0C0D8C004134433449344F344E340034B9
:100D98004534523452344F345234203445344E346E
:0E0DA80020344434483454343134313400346F
:080DB6005B3458345D34003455
:040DBE004334003486
:060DC2003C343E34003415
:100DC8002D34543445344D34503445345234413440
:0C0DD80054345534523441342D3400346E
:040DE400253400347E
:020DE8000034D5
:020DEA000034D3
:040DEC004334003458
:100DF000483455344D3445344434413444343A3421
:020E00000034BC
:100E0200543445344D3450344534523441345434DE
:0A0E12005534523441343A340034B0
:020E1C000034A0
:040E1E000034003468
:020E220000349A
:0A0E24004E3455344C344C34003485
:040E2E002534003433
:060E32003C343E340034A4
:100E38002D34483455344D344534443441344434E5
:040E48002D34003411
:100E4C004534523452344F345234203445344E34B9
:0E0E5C002034443448345434313431340034BA
:020E6A00003452
:020E6C00003450
:04400E00F42F000784
:00000001FF
