:02000000352D9C
:10000600103083120313FD00FD0B072800000800C3
:0400160000000800DE
:10001A00083083120313FC002330FD00FD0B132864
:06002A00FC0B1328080086
:1000300083160313EB1B1F288312861121288312BA
:10004000861583166B1B2728831206112928831215
:1000500006158316EB1A2F28831286103128831277
:10006000861483166B1A37288312061039288312D8
:10007000061483164A183F28831206164128831255
:10008000061286160B2086128316EB194A28831255
:1000900086114C288312861583166B1952288312F9
:1000A00006115428831206158316EB185A2883125A
:1000B00086105C288312861483166B1862288312BC
:1000C000061064288312061483164A186A288312BD
:1000D00006166C288312061286160B2086128316CB
:0C00E0004A1C74280D207528032008001D
:1000EC00831603134A106A08EB00182083164A146F
:0200FC000800FA
:1000FE0083120313F8010830FC00700DF80D74081C
:10010E00F80203188C28F8070310F00DFC0B842856
:02011E000800D7
:10012000A228803083160313E600B528C030E6000D
:10013000B5289430E600B528D430E600B5288030E4
:10014000E600B528831603136608013A03199128BF
:100150006608023A031996286608033A0319992893
:100160006608043A03199C289F286703F000660874
:10017000F0077008E6007008EB00182083164A109C
:10018000E90169086807840000080319CF28690895
:10019000680784000008EA007620E90AC1284A14AA
:0201A000080055
:1001A20083160313E801033068020318DF28680886
:1001B2006707840020308000E80AD42868086707AF
:1001C20084008001E80368086707E9000A30F40048
:1001D2006608F0007F207808F0003030F0078316C0
:1001E20069088400700880000A30F4006608F00094
:1001F2007F2070088316E6007008003A031D02296A
:080202000429E803E4280800C8
:0E020A00831203136F088A006E08820008003A
:1002180083120313F801F9011030FC00710DF80D79
:10022800F90D7408F8027508031C750FF902031814
:1002380024297408F80775080318750FF9070310BF
:0A024800F00DF10DFC0B1229080067
:1002520083120313FB01FA01F9018030F800F10C5B
:10026200F00C031C3D297408F90775080318750F73
:10027200FA070318FB0A0310F01F45297408FA074E
:1002820075080318750FFB07FB0CFA0CF90CF80C38
:10029200031C30297B08F3007A08F2007908F10088
:0602A2007808F0000800DE
:1002A800831203137008F100F0010830FC00710894
:1002B800F40C03186329FC0B5C29F10100340310CA
:1002C8006829F40C0318F107F10CF00CFC0B6529F4
:0202D80008001C
:1002DA00831603178C1C732900006D2903135E080B
:1002EA00831203178D00831603135F088312031703
:1002FA008C0083168C130C150B08F0008B135530E9
:10030A008D00AA308D008C14F01B8D298B138E2939
:06031A008B170C11080016
:1003200083160313E201E301E401E501E401E501C1
:1003300061086502031D9E29600864020318CE2926
:10034000831205148316E201E3015F086302031DB3
:10035000AB295E0862020318B9290230FC004B3059
:10036000FD00FD0BB129FC0BB129E20A0319E30AD8
:10037000A529831205108316E201E3015F086302D9
:10038000031DC4295E0862020318CA29E20A031980
:0E039000E30ABE29E40A0319E50A98290800C9
:10039E00013083160313EB0018200C308316EB008C
:1003AE001820882A831244088316E600DF30E700FF
:1003BE00D1200130E6000D30E700DF30E80090205C
:1003CE00831241088316E600DF30E700D1200230A9
:1003DE00E6000D30E700DF30E80090200130E60047
:1003EE000130E7003430E80090200230E6000130A2
:1003FE00E7002B30E80090200130E6001030E700D7
:10040E004530E80090200230E6001030E70024303E
:10041E00E8009020A22A0130E6000730E7002030E5
:10042E00E80090200230E6000230E7005830E80085
:10043E009020A22A0130E6000330E700A030E80049
:10044E009020A22A0130E6000330E7004730E80092
:10045E0090200230E6000130E7005530E800902091
:10046E000230E6001030E7006C30E8009020831276
:10047E0043088316E600DF30E700D1200230E600A5
:10048E000D30E700DF30E8009020A22A0130E600B0
:10049E000430E700BD30E80090200230E600013065
:1004AE00E700C730E80090200230E6001030E70089
:1004BE006930E8009020831242088316E600DF3090
:1004CE00E700D1200230E6000D30E700DF30E80013
:1004DE009020A22A0130E6000730E7006B30E800DA
:1004EE0090200230E6000230E700AE30E8009020A7
:1004FE00A22A0130E6000730E7002630E8009020FF
:10050E00A22A83165E08493A0319D9295E08453A8C
:10051E000319122A5E08433A0319212A5E08543A37
:10052E000319292A5E08483A03194D2A5E08583ADB
:08053E000319712A802A08004C
:1005460083160313D501D601D701D801D901DA01E3
:100556000A30DB000030DC008312C401C1018316BF
:100566000810831208140630FD00FD0BB82A00009F
:1005760008101830FC005F30FD00FD0BC02AFC0B94
:10058600C02A08140730FD00FD0BC72A831608147D
:100596000330FD00FD0BCD2A8312081CD52AFF303F
:1005A600F000E02B1A30FD00FD0BD72A00000818DA
:1005B600DF2AFF30F000E02B1A30FD00FD0BE12AA8
:1005C60000008316D501053055020318282BD601E5
:1005D600083056020318262B83120818F32AEF2A2E
:1005E6000930FD00FD0BF52A00000000081C0C2B4D
:1005F60083165508CC3EF300730884000008F20009
:100606007208F000F00D7010701473088400700802
:100616008000831208181F2B83165508CC3EF30062
:10062600730884000008F2007208F000F00D7010E4
:1006360073088400700880008312081C232B1F2B6C
:100646008316D60AEB2AD50AE62A0810831208145E
:1006560083164D084C07F000F1010318F10A4E0805
:10066600F0070318F10A4F087007F2007108031823
:10067600013EF30000307306031D432B500872063B
:10068600031DDE2B4C08D700D8014E08D900DA012D
:100696000A30DB000030DC00D501023055020318B9
:1006A600882B5508D13EDD005B08F4005C08F50098
:1006B6005708F0005808F1000C2183165D088400E5
:1006C600700880005508D13E84000008F000003014
:1006D600F1005B08F4005C08F50029217008831618
:1006E600D702031CD8037108D8020A30F400003080
:1006F600F5005B08F0005C08F1000C217008831619
:10070600DB007108DC00D50A502B0A30DB00003014
:10071600DC000230D500043055020318C62B5508FC
:10072600D13EDD005B08F4005C08F5005908F000D6
:100736005A08F1000C2183165D08840070088000B9
:100746005508D13E84000008F0000030F1005B0837
:10075600F4005C08F500292170088316D902031CF1
:10076600DA037108DA020A30F4000030F5005B089B
:10077600F0005C08F1000C2170088316DB0071089C
:10078600DC00D50A8E2B5308F0000A30F400542101
:100796008316540870078312C40083165108F000AC
:1007A6000A30F40054218316520870078312C100E0
:0C07B6000130F000E02BFF30F0000800E4
:1007C200831603134B08831203178D0083168C13B1
:0A07D2000C1483120C08F00008005C
:1007DC0083160313CB01CC018312081FD92C83166B
:1007EC00CB01CC0183120313081FD92C0D30FC0054
:1007FC00FB30FD00FD0B002CFC0B002C000000005E
:10080C008316CB0A0319CC0A00304C02031D102CA2
:10081C0064304B02031CD82C4330DE00CF21F43063
:10082C00DE000130DF000130E0000030E1009021FB
:10083C00CB01CC018312081F242C202C00308316F2
:10084C004C02031D2B2C02304B020318C92C003018
:10085C004C06031D332C00304B06031D392C543031
:10086C00DE00CF21442C00304C06031D3F2C013000
:10087C004B06031D442C4830DE00CF218312881F09
:10088C007B2C0230FB000430FC00BA30FD00FD0B69
:10089C004D2CFC0B4D2CFB0B4D2C0000003083160B
:1008AC004C06031D5B2C00304B06031D682C3230AC
:1008BC00831243020318632CC30A54308316DE00E0
:1008CC00CF217A2C00304C06031D6E2C01304B06C8
:1008DC00031D7A2C5A30831242020318762CC20A5A
:1008EC0048308316DE00CF21C32C8312881EB22C15
:1008FC000230FB000430FC00BA30FD00FD0B842CF0
:10090C00FC0B842CFB0B842C0000003083164C0653
:10091C00031D922C00304B06031D9F2C83124308A1
:10092C00003C03189A2CC30354308316DE00CF21ED
:10093C00B12C00304C06031DA52C01304B06031DB9
:10094C00B12C83124208143C0318AD2CC20348305E
:10095C008316DE00CF21C32C8312081FC32C081F63
:10096C00B82CB52C64308316DE000030DF0001306B
:10097C00E0000030E1009021C42C442C8316CB0AFB
:10098C000319CC0A242C0230DE0083124308831690
:10099C00DF006D2103300313DE008312420883163F
:0809AC00DF006D21F82B0800AB
:1009B400831603138612061206108610061186117A
:1009C40083128612061286110611861006100D2057
:1009D4000D200D208614061486160B2086120D2079
:1009E40086160B2086120D2086160B2086120D20EB
:1009F400061086160B2086120D2086160B208612F2
:100A04008610861586160B2086120D208611061474
:100A140086160B208612061086160B2086120D20D1
:100A240086160B208612061486160B2086120D20BD
:100A3400061086160B2086128615061586140614D3
:0E0A440086160B2086120D2083164A14080019
:100A520005218A110A128000840AEE0A0319EF0A9C
:080A6200F003031D292D08001B
:100A6A0020268316031788018901E03003138800C2
:100A7A0085018312850101308800DA240C30EB00ED
:100A8A00182002308316CB00E12370080313C30039
:100A9A0003308316CB00E12370080313C2005830D9
:100AAA008316DE000230DF000130E0000030E10092
:100ABA00902183160130CB00A322831203137008FE
:100ACA00013A031D6D2D49308316DE00CF21872D93
:100ADA0083164530DE00CF21C830DE00DF01033047
:100AEA00E0000030E10090210330FB008A30FC0076
:100AFA005530FD00FD0B7F2DFC0B7F2DFB0B7F2D51
:100B0A00000000008312E701E80103306802031DB8
:100B1A00902DE83067020318A12D0230FC004B30FB
:100B2A00FD00FD0B962DFC0B962DEE23831203136D
:0C0B3A00E70A0319E80A8A2D5E2DA22D9F
:100C400020308400493083120313F000A830EE00F6
:100C50000530EF002925A03084000E308312F0000B
:100C60000030EE000630EF002925693084000330A3
:100C70008312F0001B30EE000630EF002925AE3065
:100C800084000F308312F000F130EE000530EF00E9
:100C900029256C30840002308312F0001E30EE00F3
:100CA0000630EF002925BD3084000D308312F0009E
:0C0CB0000E30EE000630EF002925080091
:080B50005B3458345D340034BD
:040B5800253400340C
:0A0B5C004E3455344C344C34003450
:100B6600483455344D3445344434413444343A34AD
:020B7600003449
:100B7800543445344D34503445345234413454346B
:0A0B88005534523441343A3400343D
:020B920000342D
:020B940000342B
:020B9600003429
:020B9800003427
:040B9A0043340034AC
:100B9E002D34543445344D3450344534523441346C
:0C0BAE0054345534523441342D3400349A
:060BBA003C343E3400341F
:100BC0004534523452344F345234203445344E3448
:0E0BD000203444344834543431343134003449
:040BDE0000340034AB
:100BE2004534523452344F345234203445344E3426
:0E0BF200203444344834543431343134003427
:100C000043344F344E3446344934473455345234E7
:0C0C10004134433449344F344E34003436
:100C1C002D34483455344D34453444344134443403
:040C2C002D3400342F
:060C30003C343E340034A8
:040C3600253400342D
:020C3A00003484
:040C3C004334003409
:04400E00F22F000786
:00000001FF
