:02000000172CBB
:10000600103083120313FD00FD0B072800000800C3
:0400160000000800DE
:10001A00083083120313FC002330FD00FD0B132864
:06002A00FC0B1328080086
:1000300083160313E11B1F288312861121288312C4
:1000400086158316611B272883120611292883121F
:1000500006158316E11A2F28831286103128831281
:1000600086148316611A37288312061039288312E2
:100070000614831648183F28831206164128831257
:10008000061286160B2086128316E1194A2883125F
:1000900086114C2883128615831661195228831203
:1000A00006115428831206158316E1185A28831264
:1000B00086105C28831286148316611862288312C6
:1000C0000610642883120614831648186A288312BF
:1000D00006166C288312061286160B2086128316CB
:0C00E000481C74280D207528032008001F
:1000EC008316031348106008E10018208316481487
:0200FC000800FA
:1000FE0083120313F8010830FC00700DF80D74081C
:10010E00F80203188C28F8070310F00DFC0B842856
:02011E000800D7
:1001200083120313F801F9011030FC00710DF80D72
:10013000F90D7408F8027508031C750FF90203180D
:10014000A8287408F80775080318750FF907031035
:0A015000F00DF10DFC0B96280800DD
:10015A0083120313FB01FA01F9018030F800F10C54
:10016A00F00C031CC1287408F90775080318750FE9
:10017A00FA070318FB0A0310F01FC9287408FA07C4
:10018A0075080318750FFB07FB0CFA0CF90CF80C31
:10019A00031CB4287B08F3007A08F2007908F100FE
:0601AA007808F0000800D7
:1001B000831203137008F100F0010830FC0071088D
:1001C000F40C0318E728FC0BE028F10100340310BD
:1001D000EC28F40C0318F107F10CF00CFC0BE928E7
:0201E000080015
:1001E20083160313DE0103305E020318FF285E0844
:1001F2005D07840020308000DE0AF4285E085D0777
:1002020084008001DE035E085D07DF000A30F4002F
:100212005C08F0007F207808F0003030F007831689
:100222005F088400700880000A30F4005C08F00067
:100232007F2070088316DC007008003A031D222913
:080242002429DE030429080051
:10024A003729803083160313DC004A29C030DC00CA
:10025A004A299430DC004A29D430DC004A2980300B
:10026A00DC004A29831603135C08013A031926297C
:10027A005C08023A03192B295C08033A03192E2950
:10028A005C08043A0319312934295D03F0005C083B
:10029A00F0077008DC007008E10018208316481087
:1002AA00DF015F085E0784000008031964295F08FC
:1002BA005E0784000008E0007620DF0A5629481409
:0202CA0008002A
:0E02CC008316031347088A00460882000800C4
:1002DA00013083160313E10018200C308316E10065
:1002EA001820242A83124E088316DC00CA30DD0047
:1002FA00F1200130DC000D30DD00CA30DE0025219E
:10030A0083124D088316DC00CA30DD00F12002306A
:10031A00DC000D30DD00CA30DE0025210130DC00B2
:10032A000130DD002B30DE0025210230DC000130F7
:10033A00DD002230DE0025210130DC001030DD0036
:10034A002030DE0025210230DC001030DD004B3089
:10035A00DE0025213E2A0130DC000730DD0047306F
:10036A00DE0025210230DC000230DD003830DE00FC
:10037A0025213E2A0130DC000330DD004F30DE004B
:10038A0025213E2A0130DC000330DD00AA30DE00E0
:10039A0025210230DC000130DD00A730DE002521F6
:1003AA000230DC001030DD00A530DE0025214508D2
:1003BA00DC00CA30DD00F1200230DC000D30DD0047
:1003CA00CA30DE0025213E2A0130DC000430DD007F
:1003DA00BB30DE0025210230DC000130DD00B83000
:1003EA00DE0025210230DC001030DD006E30DE0038
:1003FA00252183126D088316DC00CA30DD00F12046
:10040A000230DC000D30DD00CA30DE0025213E2A34
:10041A000130DC000730DD006C30DE0025210230BF
:10042A00DC000230DD005D30DE0025213E2A01308D
:10043A00DC000730DD00A030DE0025213E2A8316CD
:10044A004908493A031977294908453A0319B0294D
:10045A004908433A0319BF294908543A0319C729D5
:10046A004908483A0319E9294908583A03190D2A4B
:04047A001C2A080030
:10047E0083160313D301D401D501D601D701D801B8
:10048E000A30D9000030DA008312CE01CD01831676
:10049E000810831208140630FD00FD0B542A0000CC
:1004AE0008101830FC005F30FD00FD0B5C2AFC0BC1
:1004BE005C2A08140730FD00FD0B632A831608140E
:1004CE000330FD00FD0B692A8312081C712AFF30D0
:1004DE00F0007C2B1A30FD00FD0B732A000008186B
:1004EE007B2AFF30F0007C2B1A30FD00FD0B7D2A9D
:1004FE0000008316D301053053020318C42AD40119
:10050E00083054020318C22A831208188F2A8B2A25
:10051E000930FD00FD0B912A00000000081CA82ADE
:10052E0083165308CA3EF300730884000008F200D5
:10053E007208F000F00D70107014730884007008CB
:10054E00800083120818BB2A83165308CA3EF30094
:10055E00730884000008F2007208F000F00D7010AD
:10056E0073088400700880008312081CBF2ABB2AFF
:10057E008316D40A872AD30A822A081083120814F3
:10058E0083164B084A07F000F1010318F10A4C08D4
:10059E00F0070318F10A4D087007F20071080318EE
:1005AE00013EF30000307306031DDF2A4E0872066B
:1005BE00031D7A2B4A08D500D6014C08D700D80166
:1005CE000A30D9000030DA00D3010230530203188A
:1005DE00242B5308CF3EDB005908F4005A08F500CF
:1005EE005508F0005608F100902083165B08840031
:1005FE00700880005308CF3E84000008F0000030E1
:10060E00F1005908F4005A08F500AD207008831661
:10061E00D502031CD6037108D6020A30F40000304E
:10062E00F5005908F0005A08F10090207008831662
:10063E00D9007108DA00D30AEC2A0A30D90000304A
:10064E00DA000230D300043053020318622B530831
:10065E00CF3EDB005908F4005A08F5005708F000A9
:10066E005808F100902083165B0884007008800003
:10067E005308CF3E84000008F0000030F100590806
:10068E00F4005A08F500AD2070088316D702031C3B
:10069E00D8037108D8020A30F4000030F50059086A
:1006AE00F0005A08F100902070088316D9007108E6
:1006BE00DA00D30A2A2B5108F0000A30F400D820B1
:1006CE008316520870078312CE0083164F08F0006F
:1006DE000A30F400D8208316500870078312CD001C
:0C06EE000130F0007C2BFF30F000080011
:1006FA0083160313CD01CE01CF01D001CF01D00162
:10070A004C085002031D8B2B4B084F020318BB2BBE
:10071A00831205148316CD01CE014A084E02031D29
:10072A00982B49084D020318A62B0230FC004B30C7
:10073A00FD00FD0B9E2BFC0B9E2BCD0A0319CE0A46
:10074A00922B831205108316CD01CE014A084E0260
:10075A00031DB12B49084D020318B72BCD0A031903
:0E076A00CE0AAB2BCF0A0319D00A852B08004C
:1007780083160313861206120610861006118611B8
:1007880083128612061286110611861006100D2095
:100798000D200D208614061486160B2086120D20B7
:1007A80086160B2086120D2086160B2086120D2029
:1007B800061086160B2086120D2086160B20861230
:1007C8008610861586160B2086120D2086110614B3
:1007D80086160B208612061086160B2086120D2010
:1007E80086160B208612061486160B2086120D20FC
:1007F800061086160B208612861506158614061412
:0E08080086160B2086120D2083164814080059
:1008160066218A110A128000840AC60A0319C70AC9
:08082600F003031D0B2C080078
:10082E00CE248316031788018901E0300313880054
:10083E0085018312850101308800BC230C30E10054
:10084E00182001308316C9003F228312031370084B
:10085E00013A031D372C49308316C9006D21512CE6
:10086E0083164530C9006D21C830C900CA01033056
:10087E00CB000030CC007D230330FB008A30FC001F
:10088E005530FD00FD0B492CFC0B492CFB0B492C64
:08089E0000000000282C522C80
:10099C00203084004E3083120313F000583083163D
:1009AC00C6000430C7000B24A0308400053083122D
:1009BC000313F000C7308316C6000430C7000B24A5
:1009CC006E308400023083120313F000CC30831697
:1009DC00C6000430C7000B24A530840021308312DC
:1009EC000313F000A6308316C6000430C7000B2496
:0209FC000800F1
:0408B0004334003499
:1008B400483455344D3445344434413444343A3462
:0208C4000034FE
:1008C600543445344D345034453452344134543420
:0A08D6005534523441343A340034F2
:1008E0004534523452344F345234203445344E342B
:0E08F00020344434483454343134313400342C
:0808FE005B3458345D34003412
:040906002534003460
:02090A000034B7
:02090C000034B5
:10090E0043344F344E3446344934473455345234DC
:0C091E004134433449344F344E3400342B
:10092A004534523452344F345234203445344E34E0
:0E093A002034443448345434313431340034E1
:02094800003479
:02094A00003477
:04094C0043340034FC
:060950003C343E3400348B
:100956002D34543445344D345034453452344134B6
:0C09660054345534523441342D340034E4
:060972003C343E34003469
:100978002D34483455344D344534443441344434AA
:040988002D340034D6
:02098C00003435
:0A098E004E3455344C344C34003420
:0409980025340034CE
:04400E00F22F000786
:00000001FF
