:02000000292EA7
:0400060000000800EE
:10000A00083083120313FC002330FD00FD0B0B287C
:06001A00FC0B0B2808009E
:10002000103083120313FD00FD0B1428000008009C
:1000300083160313EC1B1F288312861121288312B9
:10004000861583166C1B2728831206112928831214
:1000500006158316EC1A2F28831286103128831276
:10006000861483166C1A37288312061039288312D7
:10007000061483164B183F28831206164128831254
:1000800006128616032086128316EC194A2883125C
:1000900086114C288312861583166C1952288312F8
:1000A00006115428831206158316EC185A28831259
:1000B00086105C288312861483166C1862288312BB
:1000C000061064288312061483164B186A288312BC
:1000D00006166C28831206128616032086128316D3
:0C00E0004B1C7428052075281020080017
:1000EC0083120313F8010830FC00700DF80D74082E
:1000FC00F80203188328F8070310F00DFC0B7B287B
:02010C000800E9
:10010E00831603134B106B08EC00182083164B1448
:02011E000800D7
:10012000A228803083160313E700B528C030E7000B
:10013000B5289430E700B528D430E700B5288030E2
:10014000E700B528831603136708013A03199128BD
:100150006708023A031996286708033A0319992891
:100160006708043A03199C289F286803F000670871
:10017000F0077008E7007008EC00182083164B1099
:10018000EA016A086907840000080319CF286A0891
:10019000690784000008EB008720EA0AC1284B1495
:0201A000080055
:1001A200831603139818D7280000D12867088312F2
:0401B20099000800A8
:1001B60083160313E901033069020318E928690865
:1001C6006807840020308000E90ADE28690868078D
:1001D60084008001E90369086807EA000A30F40030
:1001E6006708F00076207808F0003030F0078316B4
:1001F6006A088400700880000A30F4006708F0007E
:10020600762070088316E7007008003A031D0C2953
:080216000E29E903EE2808009F
:10021E0083120313FB01FA01F9018030F800F10C8F
:10022E00F00C031C23297408F90775080318750FC1
:10023E00FA070318FB0A0310F01F2B297408FA079C
:10024E0075080318750FFB07FB0CFA0CF90CF80C6C
:10025E00031C16297B08F3007A08F2007908F100D6
:06026E007808F000080012
:0E027400831603134A088A0049088200080016
:10028200831203137008F100F0010830FC007108BA
:10029200F40C03185029FC0B4929F1010034031016
:1002A2005529F40C0318F107F10CF00CFC0B522940
:0202B200080042
:1002B40083160313E1015F0884000008E00060086E
:1002C400003A031970296008E700D1208316E10A77
:0E02D40061085F0784000008E000612908004F
:1002E200831603178C1C77290000712903135F08FA
:1002F200831203178D0083160313600883120317FA
:100302008C0083168C130C150B08F0008B135530E0
:100312008D00AA308D008C14F01B91298B13922929
:060322008B170C1108000E
:1003280083160313E301E401E501E601E501E601B3
:1003380062086602031DA229610865020318D22912
:10034800831205148316E301E40160086402031DA7
:10035800AF295F0863020318BD290230FC004B3047
:10036800FD00FD0BB529FC0BB529E30A0319E40AC6
:10037800A929831205108316E301E40160086402C9
:10038800031DC8295F0863020318CE29E30A03196D
:0E039800E40AC229E50A0319E60A9C290800B6
:1003A60083120313F801F9011030FC00710DF80DEA
:1003B600F90D7408F8027508031C750FF902031885
:1003C600EB297408F80775080318750FF907031069
:0A03D600F00DF10DFC0BD929080011
:1003E000013083160313EC0018200C308316EC0048
:1003F0001820A52A831257088316E700E030E8008A
:10040000DB200130E7000D30E800E030E90090200B
:10041000831256088316E700E030E800DB20023044
:10042000E7000D30E800E030E90090200130E700FF
:100430000130E8006330E90090200230E70001302D
:10044000E8005A30E90090200130E7001030E80061
:100450005830E90090200230E7001030E8005430B6
:10046000E9009020BF2A0130E7000730E8003D3066
:10047000E90090200230E7000230E8002E30E90069
:100480009020BF2A0130E7000330E8002030E90067
:100490009020BF2A0130E7000330E8004630E90031
:1004A00090200230E7000130E8004330E90090205E
:1004B0000230E7001030E8004130E90090202008C9
:1004C000E700E030E800DB200230E7000D30E80014
:1004D000E030E9009020BF2A0130E7000430E80056
:1004E000AE30E90090200230E7000130E800AB3088
:1004F000E90090200230E7001030E800A930E90060
:1005000090204808E700E030E800DB200230E700F8
:100510000D30E800E030E9009020BF2A0130E7000C
:100520000730E800C730E90090200230E7000230D1
:10053000E800B830E9009020BF2A0130E70007301A
:10054000E800A430E9009020BF2A83165F08493AEA
:100550000319FA295F08453A0319332A5F08433A19
:100560000319422A5F08543A03194A2A5F08483A95
:1005700003196C2A5F08583A03198E2A9D2A08002D
:1005800083120313570883162006031DCB2A8312F8
:1005900008118810DC2A83162008831257020318DA
:1005A000D42A08158810DC2A57088316200203185D
:1005B000DC2A831208118814831256088316480611
:1005C000031DE52A83128811F42A83164808831232
:1005D00056020318ED2A8815F42A56088316480295
:0A05E0000318F42A831288110800A2
:1005EA00543083160313CC003030CD003030CE00A7
:1005FA004130CF003030D0003030D1004830D20006
:10060A003030D3003030D4004230D5003030D600FC
:10061A003030D7004530D8003030D9003030DA00D9
:10062A000A30DB000D30DC00DD010A30F4008312F1
:10063A005708F000762070088316DE005E08F00086
:10064A000A30F400412170085702F0003030831656
:10065A005E07CD0030307007CE000A30F400200863
:10066A00F000762070088316DE005E08F0000A307B
:10067A00F4004121700883162002F00030305E0732
:10068A00D00030307007D1000A30F40083125608C7
:10069A00F000762070088316DE005E08F0000A304B
:1006AA00F400412170085602F000303083165E07CC
:1006BA00D30030307007D4000A30F4004808F00044
:1006CA00762070088316DE005E08F0000A30F40017
:1006DA004121700883164802F00030305E07D600C8
:1006EA0030307007D7000A30F4002308F000762073
:1006FA0070088316DE005E08F0000A30F40041211B
:10070A00700883162302F00030305E07D9003030BB
:0C071A007007DA00CC30DF005A21080024
:1007260083160313CC01CD018312081F722C831686
:10073600CC01CD0183120313081F722C0D30FC006F
:10074600FB30FD00FD0BA52BFC0BA52B00000000CC
:100756008316CC0A0319CD0A00304D02031DB52BB2
:1007660064304C02031C712C4330DF00F021F4305E
:10077600DF000130E0000130E1000030E2009421AA
:10078600CC01CD018312081FC92BC52B003083165F
:100796004D02031DD02B02304C020318662C00308C
:1007A6004D06031DD82B00304C06031DDE2B54309E
:1007B600DF00F021E92B00304D06031DE42B01304C
:1007C6004C06031DE92B4830DF00F0218312881FF9
:1007D6001C2C0230FB000430FC00BA30FD00FD0B7F
:1007E600F22BFC0BF22BFB0BF22B000000308316D6
:1007F6004D06031D002C00304C06031D0B2C323019
:1008060020020318072CA00A5430DF00F0211B2C0D
:1008160000304D06031D112C01304C06031D1B2C08
:100826005A3048020318182CC80A4830DF00F02155
:10083600602C8312881E4F2C0230FB000430FC0013
:10084600BA30FD00FD0B252CFC0B252CFB0B252CB3
:100856000000003083164D06031D332C00304C0675
:10086600031D3E2C2008003C03183A2CA0035430EC
:10087600DF00F0214E2C00304D06031D442C0130C4
:100886004C06031D4E2C4808143C03184B2CC80379
:100896004830DF00F021602C8312081F602C081FEF
:1008A600552C522C64308316DF000030E0000130F6
:1008B600E1000030E2009421612CE92B8316CC0A7A
:1008C6000319CD0AC92B0230DF002008E000712190
:1008D60003300313DF004808E00071219D2B080058
:1008E60083160313D501D601D701D801D901DA0140
:1008F6000A30DB000030DC008312D701D6018316F4
:100906000810831208140630FD00FD0B882C000029
:1009160008101830FC005F30FD00FD0B902CFC0B1E
:10092600902C08140730FD00FD0B972C8316081435
:100936000330FD00FD0B9D2C8312081CA52CFF30F7
:10094600F000B02D1A30FD00FD0BA72C0000081892
:10095600AF2CFF30F000B02D1A30FD00FD0BB12C8E
:1009660000008316D501053055020318F82CD60170
:10097600083056020318F62C83120818C32CBF2C15
:100986000930FD00FD0BC52C00000000081CDC2C06
:1009960083165508CC3EF300730884000008F20065
:1009A6007208F000F00D701070147308840070085F
:1009B600800083120818EF2C83165508CC3EF300EE
:1009C600730884000008F2007208F000F00D701041
:1009D60073088400700880008312081CF32CEF2C27
:1009E6008316D60ABB2CD50AB62C08108312081417
:1009F60083164D084C07F000F1010318F10A4E0862
:100A0600F0070318F10A4F087007F200710803187F
:100A1600013EF30000307306031D132D50087206C5
:100A2600031DAE2D4C08D700D8014E08D900DA01B7
:100A36000A30DB000030DC00D50102305502031815
:100A4600582D5508D13EDD005B08F4005C08F50022
:100A56005708F0005808F100D32183165D0884007A
:100A6600700880005508D13E84000008F000003070
:100A7600F1005B08F4005C08F5000F21700883168E
:100A8600D702031CD8037108D8020A30F4000030DC
:100A9600F5005B08F0005C08F100D32170088316AE
:100AA600DB007108DC00D50A202D0A30DB0000309F
:100AB600DC000230D500043055020318962D550887
:100AC600D13EDD005B08F4005C08F5005908F00033
:100AD6005A08F100D32183165D088400700880004F
:100AE6005508D13E84000008F0000030F1005B0894
:100AF600F4005C08F5000F2170088316D902031C68
:100B0600DA037108DA020A30F4000030F5005B08F7
:100B1600F0005C08F100D32170088316DB00710831
:100B2600DC00D50A5E2D5308F0000A30F40041219E
:100B36008316540870078312D70083165108F000F5
:100B46000A30F40041218316520870078312D6003A
:0C0B56000130F000B02DFF30F00008006E
:100B62003A218A110A128000840AC90A0319CA0AA0
:080B7200F003031DB12D080082
:100B7A00831603134C08831203178D0083168C13F4
:0A0B8A000C1483120C08F0000800A0
:100B940083160313981690308312980083168717D0
:100BA400071383128C1ED92D1A08F000D32D0800C8
:100BB4008316031386120612061086100611861178
:100BC400831286120612861106118610061005205D
:100BD4000520052086140614861603208612052097
:100BE4008616032086120520861603208612052009
:100BF4000610861603208612052086160320861208
:100C04008610861586160320861205208611061482
:100C140086160320861206108616032086120520E7
:100C240086160320861206148616032086120520D3
:100C340006108616032086128615061586140614D9
:0E0C4400861603208612052083164B14080026
:100C52001C278316031788018901E03003138800DB
:100C620085018312850101308800DA250C30EC0001
:100C7200182002308316CC00BD257008831603139A
:100C8200A0000330CC00BD25700883160313C800F2
:100C9200193099001815CA2558308316DF00023022
:100CA200E0000130E1000030E2009421732483125D
:100CB20003137008013A031D642E49308316DF00C6
:100CC200F021A301802E83164530DF00F021013090
:100CD200A300C830DF00E0010330E1000030E20091
:100CE20094210330FB008A30FC005530FD00FD0BDF
:100CF200782EFC0B782EFB0B782E00000000F522DC
:100D0200A101A20103302202031D892EE830210233
:100D120003189B2E0230FC004B30FD00FD0B8F2E82
:100D2200FC0B8F2E9323C02283160313A10A0319EF
:080D3200A20A832E572E9C2E0D
:100E380020308400503083120313F000A230831650
:100E4800C9000630CA00B125A030840029308312B9
:100E5800F000F2308316C9000630CA00B125080038
:100D440043344F344E3446344934473455345234A2
:0C0D54004134433449344F344E340034F1
:100D60004534523452344F345234203445344E34A6
:0E0D70002034443448345434313431340034A7
:080D7E005B3458345D3400348D
:040D860043340034BE
:060D8A003C343E3400344D
:100D90002D34543445344D34503445345234413478
:0C0DA00054345534523441342D340034A6
:040DAC0025340034B6
:020DB00000340D
:020DB20000340B
:040DB4004334003490
:100DB800483455344D3445344434413444343A3459
:020DC8000034F5
:100DCA00543445344D345034453452344134543417
:0A0DDA005534523441343A340034E9
:020DE4000034D9
:040DE60000340034A1
:020DEA000034D3
:0A0DEC004E3455344C344C340034BE
:040DF600253400346C
:060DFA003C343E340034DD
:100E00002D34483455344D3445344434413444341D
:040E10002D34003449
:100E14004534523452344F345234203445344E34F1
:0E0E24002034443448345434313431340034F2
:020E320000348A
:020E3400003488
:04400E00F42F000784
:00000001FF
