:02000000B9281D
:0400060000000800EE
:10000A00103083120313FD00FD0B092800000800BD
:10001A00083083120313FC002330FD00FD0B132864
:06002A00FC0B1328080086
:0E0030008312031322088A00210882000800B0
:10003E0083160313861206120610861006118611F9
:10004E0083128612061286110611861006100D20D6
:10005E000D200D20861406148616032086120D2000
:10006E008616032086120D208616032086120D207A
:10007E0006108616032086120D2086160320861281
:10008E00861086158616032086120D2086110614FC
:10009E0086160320861206108616032086120D2061
:1000AE0086160320861206148616032086120D204D
:1000BE00061086160320861286150615861406145B
:0C00CE008616032086120D202014080066
:1000DA0083120313A31B7328861174288615231B06
:1000EA007828061179280615A31A7D2886107E28F5
:1000FA008614231A822806108328061420188728B3
:10010A00061688280612861603208612A3198F2837
:10011A008611902886152319942806119528061504
:10012A00A318992886109A28861423189E28061040
:10013A009F2806142018A3280616A4280612861635
:10014A0003208612201CAB280D20AC2805200800AD
:10015A0018208A110A128000840AA10A0319A20A25
:08016A00F003031DAD2808009D
:100172008316031788018901E03003138800850183
:1001820083128501013088001F200C30A3006D20EE
:04019200C928CA2886
:04400E00F22F000786
:00000001FF
