:02000000CA2E06
:0400060000000800EE
:10000A00083083120313FC002330FD00FD0B0B287C
:06001A00FC0B0B2808009E
:10002000103083120313FD00FD0B1428000008009C
:1000300083120317951B1E2886111F288615151B72
:100040002328061124280615951A28288610292801
:100050008614151A2D2806102E28061403136F185F
:100060003328061634280612861603208612031734
:1000700095193C2886113D28861515194128061129
:100080004228061595184628861047288614151804
:100090004B2806104C28061403136F185128061617
:1000A000522806128616032086126F1C5928052036
:0600B0005A281020080090
:1000B60083120313F8010830FC00700DF80D740864
:1000C600F80203186828F8070310F00DFC0B6028E7
:0200D600080020
:1000D800831203136F1003171408950018206F1468
:0200E80008000E
:1000EA008316031398187B280000752883120317B8
:0800FA0010080313990008002F
:1001020093288030831203179000A628C0309000F5
:10011200A62894309000A628D4309000A6288030DB
:100122009000A628831203171008013A03198228A7
:100132001008023A031987281008033A03198A287B
:100142001008043A03198D2890281103F0001008B2
:10015200F007700890007008950018206F100317C0
:10016200930113081207840000080319C128130819
:1001720012078400000894006C200317930AB22827
:0601820003136F140800D6
:10018800831203131A08F100981CCC2818121816A9
:060198007108F0000800F0
:10019E00831203179201033012020318DD2812088E
:1001AE001107840020308000920AD228120811070D
:1001BE008400800192031208110793000A30F400A4
:1001CE001008F0005B207808F0003030F0070317BD
:1001DE0013088400700880000A30F4001008F00044
:1001EE005B207008031790007008003A031D002969
:0801FE0002299203E228080027
:0E0206000030831203138C1A0130F000080040
:1002140083120313F801F9011030FC00710DF80D7D
:10022400F90D7408F8027508031C750FF902031818
:1002340022297408F80775080318750FF9070310C5
:0A024400F00DF10DFC0B102908006D
:10024E0083120313FB01FA01F9018030F800F10C5F
:10025E00F00C031C3B297408F90775080318750F79
:10026E00FA070318FB0A0310F01F43297408FA0754
:10027E0075080318750FFB07FB0CFA0CF90CF80C3C
:10028E00031C2E297B08F3007A08F2007908F1008E
:06029E007808F0000800E2
:0E02A4008316031350088A004F0882000800DA
:1002B20083160313EA01680884000008E90069084C
:1002C200003A0319712969088312031790007520F7
:1002D2008316EA0A6A08680784000008E9006029B0
:0202E200080012
:1002E400831203137008F100F0010830FC00710858
:1002F400F40C03188129FC0B7A29F1010034031052
:100304008629F40C0318F107F10CF00CFC0B83297B
:020314000800DF
:10031600831603178C1C912900008B290313680888
:10032600831203178D0083160313690883120317BC
:100336008C0083168C130C150B08F0008B135530AC
:100346008D00AA308D008C14F01BAB298B13AC29C1
:060356008B170C110800DA
:10035C0083160313EC01ED016A080319EE296A08F0
:10036C00FF3A0319BA29EA0303217008003A031D66
:10037C00C029BA29C42070088316EB006C086807E2
:10038C00840070088000EC0A6D086907840000087E
:10039C006B06031DD329ED0ADB29ED0169088400E6
:1003AC0000086B06031DDB29ED0A6D086907840044
:1003BC000008003A031DED296D086C02F000F101F4
:1003CC00031CF1037008680784008001F129B2292D
:0803DC0068088400800108009C
:1003E400013083120317950018200C300317950071
:1003F4001820BE2A8312410803179000E9309100A7
:10040400CF20013090000D309100E930920081201E
:10041400400803179000E9309100CF20023090008B
:100424000D309100E93092008120013003179000D3
:100434000130910026309200812002300317900091
:100444000130910037309200812001300317900071
:100454001030910035309200812002300317900053
:1004640010309100333092008120D82A8312013059
:10047400031790000730910044309200812002302D
:100484000317900002309100AE3092008120D82AE8
:10049400831201300317900003309100A0309200C2
:1004A4008120D82A83120130031790000330910071
:1004B40061309200812002300317900001309100D6
:1004C400BD3092008120023003179000103091005B
:1004D400CD3092008120420803179000E93091004A
:1004E400CF20023090000D309100E930920081203D
:1004F400D82A831201300317900004309100C330CE
:100504009200812002300317900001309100C03026
:10051400920081200230031790001030910058306F
:1005240092008120250803179000E9309100CF2024
:10053400023090000D309100E93092008120D82AD9
:100544008312013003179000073091005730920056
:10055400812002300317900002309100483092004D
:100564008120D82A831201300317900007309100AC
:100574005A3092008120D82A83166808493A031910
:10058400FC296808453A0319382A6808433A0319CC
:100594004A2A6808543A0319542A6808483A03193D
:0E05A4007B2A6808583A0319A22AB42A0800D4
:1005B20083160313EC01ED01EE01EF01EE01EF01F1
:1005C2006B086F02031DE72A6A086E020318172BD5
:1005D200831205148316EC01ED0169086D02031DF7
:1005E200F42A68086C020318022B0230FC004B301C
:1005F200FD00FD0BFA2AFC0BFA2AEC0A0319ED0A9C
:10060200EE2A831205108316EC01ED0169086D02D2
:10061200031D0D2B68086C020318132BEC0A031937
:0E062200ED0A072BEE0A0319EF0AE12A080081
:1006300003217008013A031D2B2BD1308316E800EB
:100640002330E9000F30EA00AE21D130E800592113
:080650002030E80059210800E8
:1006580083160313D101D2018312081F232C83169A
:10066800D101D20183120313081F232C0D30FC0083
:10067800FB30FD00FD0B3E2BFC0B3E2B0000000069
:100688008316D10A0319D20A00305202031D4E2BD9
:1006980064305102031C222C4330E800F221F4306C
:1006A80083160313E8000130E9000130EA00003046
:1006B800EB00D922D101D2018312081F642B602BD1
:1006C800003083165202031D6B2B023051020318AF
:1006D800132C00305206031D732B00305106031DE6
:1006E800792B5430E800F221862B0030831603134F
:1006F8005206031D812B01305106031D862B4830FD
:10070800E800F22183120313881FC02B0230FB007C
:100718000430FC00BA30FD00FD0B902BFC0B902B35
:10072800FB0B902B0000003083165206031D9E2BF6
:1007380000305106031DAB2B3230831242020318DE
:10074800A62BC20A54308316E800F221BF2B0030D2
:10075800831603135206031DB32B01305106031DE4
:10076800BF2B5A30831225020318BB2BA50A483029
:100778008316E800F2210C2C83120313881EFA2B2F
:100788000230FB000430FC00BA30FD00FD0BCA2B20
:10079800FC0BCA2BFB0BCA2B000000308316520639
:1007A800031DD82B00305106031DE52B8312420888
:1007B800003C0318E02BC20354308316E800F221F2
:1007C800F92B0030831603135206031DED2B01305D
:1007D8005106031DF92B83122508143C0318F52B29
:1007E800A50348308316E800F2210C2C831203136A
:1007F800081F0C2C081F012CFE2B64308316E80000
:100808000030E9000130EA000030EB00D9220D2C5D
:10081800862B83160313D10A0319D20A642B0230DC
:10082800E800831242088316E9008B210330031382
:10083800E800831225088316E9008B21362B08006F
:10084800543083160313D1003030D2003030D30037
:100858004130D4003030D5003030D6004830D70091
:100868003030D8003030D9004230DA003030DB0088
:100878003030DC005330DD003030DE003030DF0057
:100888003030E0004530E1003030E2003030E30045
:100898000A30E4000D30E500E6010A30F400831266
:1008A8004108F0005B2070088316E7006708F00035
:1008B8000A30F400722170084102F00030308316CB
:1008C8006707D20030307007D3000A30F400831273
:1008D8004208F0005B2070088316E7006708F00004
:1008E8000A30F400722170084202F000303083169A
:1008F8006707D50030307007D6000A30F40083123D
:100908004008F0005B2070088316E7006708F000D5
:100918000A30F400722170084002F000303083166B
:100928006707D80030307007D9000A30F400831206
:100938002508F0005B2070088316E7006708F000C0
:100948000A30F400722170082502F0003030831656
:100958006707DB0030307007DC000030831288182E
:1009680001308316DE003030DE07003083120819AC
:1009780001308316DF003030DF070030831288191A
:1009880001308316E0003030E0070A30F4008312AB
:100998004308F0005B2070088316E7006708F00042
:1009A8000A30F400722170084302F00030308316D8
:1009B8006707E20030307007E300D130E8005921C2
:0209C800080025
:1009CA0083160313DA01DB01DC01DD01DE01DF013D
:1009DA000A30E0000030E1008312C101C001831631
:1009EA000810831208140630FD00FD0BFA2C0000D3
:1009FA0008101830FC005F30FD00FD0B022DFC0BC7
:100A0A00022D08140730FD00FD0B092D831608146A
:100A1A000330FD00FD0B0F2D8312081C172DFF302C
:100A2A00F000222E1A30FD00FD0B192D00000818C7
:100A3A00212DFF30F000222E1A30FD00FD0B232D50
:100A4A0000008316DA0105305A0203186A2DDB0109
:100A5A0008305B020318682D83120818352D312DD2
:100A6A000930FD00FD0B372D00000000081C4E2D3B
:100A7A0083165A08D13EF300730884000008F20076
:100A8A007208F000F00D701070147308840070087A
:100A9A00800083120818612D83165A08D13EF3008C
:100AAA00730884000008F2007208F000F00D70105C
:100ABA0073088400700880008312081C652D612D5C
:100ACA008316DB0A2D2DDA0A282D08108312081442
:100ADA00831652085107F000F1010318F10A53086E
:100AEA00F0070318F10A54087007F2007108031896
:100AFA00013EF30000307306031D852D550872066A
:100B0A00031D202E5108DC00DD015308DE00DF0141
:100B1A000A30E0000030E100DA0102305A0203181C
:100B2A00CA2D5A08D63EE2006008F4006108F500B2
:100B3A005C08F0005D08F1000A218316620884004F
:100B4A00700880005A08D63E84000008F000003081
:100B5A00F1006008F4006108F50027217008831687
:100B6A00DC02031CDD037108DD020A30F4000030E8
:100B7A00F5006008F0006108F1000A217008831688
:100B8A00E0007108E100DA0A922D0A30E000003034
:100B9A00E1000230DA0004305A020318082E5A081B
:100BAA00D63EE2006008F4006108F5005E08F00035
:100BBA005F08F1000A218316620884007008800029
:100BCA005A08D63E84000008F0000030F1006008A0
:100BDA00F4006108F500272170088316DE02031C61
:100BEA00DF037108DF020A30F4000030F500600804
:100BFA00F0006108F1000A2170088316E00071080C
:100C0A00E100DA0AD02D5808F0000A30F400722107
:100C1A008316590870078312C10083165608F0001C
:100C2A000A30F40072218316570870078312C00035
:0C0C3A000130F000222EFF30F000080016
:100C4600831603139816903083129800831687171D
:100C5600071383128C1E322E1A08F0002C2E080061
:100C6600831603135108831203178D0083168C1302
:0A0C76000C1483120C08F0000800B3
:100C800052218A110A128000840ACF0A0319D00A5D
:080C9000F003031D402E0800D3
:100C98008316031386120612061086100611861193
:100CA8008312861206128611061186100610052078
:100CB80005200520861406148616032086120520B2
:100CC8008616032086120520861603208612052024
:100CD8000610861603208612052086160320861223
:100CE800861086158616032086120520861106149E
:100CF8008616032086120610861603208612052003
:100D080086160320861206148616032086120520EE
:100D180006108616032086128615061586140614F4
:0C0D280086160320861205206F140800B8
:100D3400831203134308003A031DC62E41084206DA
:100D4400031DA72E08118810B42E4208410203186F
:100D5400AE2E08158810B42E410842020318B42E92
:100D64000811881440082506031DBA2E8811C52EC3
:100D7400250840020318C02E8815C52E40082502F8
:100D84000318C52E8811C92E88110811881008006F
:100D9400C8278316031788018901E03003138800EC
:100DA400850183128501013088004C260C3003171D
:100DB4009500182002308316D100332670080313DF
:100DC400C20003308316D100332670080313A50034
:100DD4001930831699001815232658308316E80015
:100DE4000230E9000130EA000030EB00D922E524AA
:100DF400831203137008013A031D082F4930831628
:100E0400E800F22183120313C301272F4530831610
:100E1400E800F221013083120313C300C8308316A3
:100E2400E800E9010330EA000030EB00D922033086
:100E3400FB008A30FC005530FD00FD0B1F2FFC0B1E
:100E44001F2FFB0B1F2F0000000024248312DF013F
:100E5400E00103306002031D312FE8305F02031804
:100E6400422F0230FC004B30FD00FD0B372FFC0BF2
:100E7400372F18232C239A26DF0A0319E00A2B2F75
:040E8400F92E432FD1
:100F9000203084004F3083120313F0004930831651
:100FA000CF000730D0004026A03084002F30F00062
:0E0FB00098308316CF000730D000402608008E
:060E92000A340D340034A7
:040E98005834003496
:020E9C00003420
:100E9E00543445344D345034453452344134543442
:0A0EAE005534523441343A34003414
:040EB80025340034A9
:040EBC004334003487
:100EC000483455344D3445344434413444343A3450
:020ED0000034EC
:020ED2000034EA
:020ED4000034E8
:020ED6000034E6
:020ED8000034E4
:080EDA005B3458345D34003430
:100EE2004534523452344F345234203445344E3423
:0E0EF200203444344834543431343134003424
:020F00000034BB
:040F0200253400345E
:0A0F06004E3455344C344C340034A2
:040F10000034003475
:100F14002D34543445344D345034453452344134F2
:0C0F240054345534523441342D34003420
:100F300043344F344E3446344934473455345234B4
:0C0F40004134433449344F344E34003403
:100F4C004534523452344F345234203445344E34B8
:0E0F5C002034443448345434313431340034B9
:060F6A003C343E3400346B
:060F70003C343E34003465
:100F76002D34483455344D344534443441344434A6
:040F86002D340034D2
:040F8A0043340034B8
:04400E00F42F000784
:00000001FF
