:020000004A2F85
:10000600103083120313FD00FD0B072800000800C3
:10001600083083120313FC002330FD00FD0B11286A
:06002600FC0B112808008C
:04002C0000000800C8
:1000300083160313E51B1F288312861121288312C0
:1000400086158316651B272883120611292883121B
:1000500006158316E51A2F2883128610312883127D
:1000600086148316651A37288312061039288312DE
:1000700006146E183D2806163E280612861616200F
:1000800086128316E51947288312861149288312A0
:100090008615831665194F2883120611512883127D
:1000A00006158316E51857288312861059288312DF
:1000B0008614831665185F28831206106128831240
:1000C00006146E186528061666280612861616206F
:0E00D00086126E1C6D280B206E28032008007F
:1000DE008128803083160313E2009428C030E2009A
:1000EE0094289430E2009428D430E2009428803092
:1000FE00E2009428831603136208013A031970284C
:10010E006208023A031975286208033A031978281F
:10011E006208043A03197B287E286303F000620804
:10012E00F0077008E20083126E1470088316E50063
:10013E0018206E1083166408E50018206E1408004F
:0E014E00831603133F088A003E088200080053
:10015C0083120313F8010830FC00700DF80D7408BD
:10016C00F8020318BB28F8070310F00DFC0BB3289A
:02017C00080079
:10017E00831203136E1083166208E50018206E14A6
:02018E00080067
:10019000831603139818CE280000C8285E0883121F
:0401A00099000800BA
:1001A400403083160313E50018208316E00160082D
:1001B400073C031CF0286008DF3EF00007300318FA
:1001C400013EF1007008BE007108BF00A7208A112B
:1001D4000A12E200BF208316E00AD9280230E500A3
:1001E400182083165E08E2005F08E300E4016F2034
:0201F400080001
:1001F6000D29803083160313DE002029C030DE006F
:1002060020299430DE002029D430DE0020298030D9
:10021600DE002029831603135E08013A0319FC2821
:100226005E08023A031901295E08033A03190429F4
:100236005E08043A031907290A295F03F0005E08DD
:10024600F0077008DE007008E50018206E108316AF
:10025600E101610860078400000803193B29610871
:10026600600784000008E200BF208316E10A2C29FB
:0602760083126E14080063
:10027C0083160313E0010330600203184C29600855
:10028C005F07840020308000E00A412960085F0786
:10029C0084008001E00360085F07E1000A30F4008D
:1002AC005E08F000AE207808F0003030F0078316BE
:1002BC0061088400700880000A30F4005E08F000C9
:1002CC00AE2070088316DE007008003A031D6F29FB
:0802DC007129E003512908001B
:0E02E4000030831203138C1A0130F000080062
:1002F20083160313D801560884000008D700570854
:10030200003A03198F295708DE00C8208316D80A3D
:0E0312005808560784000008D700802908000C
:10032000831203131A08F100981C98291812181642
:060330007108F000080056
:1003360083120313F801F9011030FC00710DF80D5A
:10034600F90D7408F8027508031C750FF9020318F5
:10035600B3297408F80775080318750FF907031011
:0A036600F00DF10DFC0BA1290800B9
:10037000831203137008F100F0010830FC007108CB
:10038000F40C0318C729FC0BC029F1010034031039
:10039000CC29F40C0318F107F10CF00CFC0BC92963
:0203A000080053
:1003A200831603178C1CD7290000D1290313560882
:1003B200831203178D008316031357088312031742
:1003C2008C0083168C130C150B08F0008B13553020
:1003D2008D00AA308D008C14F01BF1298B13F229A9
:0603E2008B170C1108004E
:1003E800013083160313E50018200C308316E5004E
:1003F80018200F2B831239088316DE00D730DF0050
:100408003E210130DE000230DF00D730E000FB2063
:100418003A088316DE00D730DF003E210230DE00C6
:100428000230DF00D730E000FB2001308316DE0009
:100438000130DF002730E000FB2002308316DE00A9
:100448000130DF002030E000FB2001308316DE00A1
:100458000530DF002330E000FB2002308316DE0089
:100468000530DF003030E000FB2037088316DE005F
:10047800D730DF003E210130DE000930DF00D73001
:10048800E000FB2038088316DE00D730DF003E216D
:100498000230DE000930DF00D730E000FB200130F9
:1004A8008316DE000730DF003330E000FB20023027
:1004B8008316DE000730DF002A30E000FB20013021
:1004C8008316DE000C30DF002E30E000FB20023007
:1004D8008316DE000C30DF006630E000FB200130C0
:1004E8008316DE000D30DF006830E000FB200230AC
:1004F8008316DE000D30DF006130E000FB203B0892
:1005080003198D2A01308316DE001030DF00D22057
:10051800952A01308316DE001030DF006530E000D8
:10052800FB203C0803199F2A02308316DE00103096
:10053800DF00D220A72A02308316DE001030DF0049
:100548006C30E000FB20252B01308316DE000830DC
:10055800DF00BA30E000FB2002308316DE000430F2
:10056800DF00A030E000FB20252B01308316DE00E1
:100578000330DF00AC30E000FB20252B0130831670
:10058800DE000330DF004930E000FB200230831634
:10059800DE000130DF005730E000FB200230831618
:1005A800DE001030DF003D30E000FB203708831606
:1005B800DE00D730DF003E210230DE000D30DF00E4
:1005C800D730E000FB20252B01308316DE000430F5
:1005D800DF003F30E000FB2002308316DE000130F0
:1005E800DF005C30E000FB2002308316DE001030B4
:1005F800DF005F30E000FB2038088316DE00D730CC
:10060800DF003E210230DE000D30DF00D730E00091
:10061800FB20252B252B83165608493A0319FE295A
:100628005608453A0319A82A5608433A0319B92A1D
:100638005608543A0319C22A5608483A0319E82AB0
:040648000E2B08006D
:10064C0083120313FB01FA01F9018030F800F10C5D
:10065C00F00C031C3A2B7408F90775080318750F76
:10066C00FA070318FB0A0310F01F422B7408FA0751
:10067C0075080318750FFB07FB0CFA0CF90CF80C3A
:10068C00031C2D2B7B08F3007A08F2007908F1008B
:06069C007808F0000800E0
:1006A20083160313DA01DB01DC01DD01DC01DD016C
:1006B20059085D02031D5F2B58085C0203188F2B3B
:1006C200831205148316DA01DB0157085B02031D4E
:1006D2006C2B56085A0203187A2B0230FC004B305E
:1006E200FD00FD0B722BFC0B722BDA0A0319DB0ADD
:1006F200662B831205108316DA01DB0157085B02B1
:10070200031D852B56085A0203188B2BDA0A03198C
:0E071200DB0A7F2BDC0A0319DD0A592B0800D5
:10072000831203132608003A031DBC2B3908370631
:10073000031D9D2B08118810AA2B370839020318B6
:10074000A42B08158810AA2B390837020318AA2BE6
:10075000081188143A083806031DB02B8811BB2BEA
:1007600038083A020318B62B8815BB2B3A08380212
:100770000318BB2B8811BF2B8811081188100800A3
:1007800083160313C001C1018312081FB72C8316FF
:10079000C001C10183120313081FB72C0D30FC00E8
:1007A000FB30FD00FD0BD22BFC0BD22B0000000018
:1007B0008316C00A0319C10A00304102031DE22B4F
:1007C00064304002031CB62C4330D600F421F430D0
:1007D00083160313D6000130D7000130D800003053
:1007E000D9005123C001C1018312081FF82BF42B3B
:1007F000003083164102031DFF2B02304002031814
:10080000A72C00304106031D072C00304006031DB5
:100810000D2C5430D600F4211A2C0030831603130B
:100820004106031D152C01304006031D1A2C4830CB
:10083000D600F42183120313881F542C0230FB00CE
:100840000430FC00BA30FD00FD0B242CFC0B242CE2
:10085000FB0B242C0000003083164106031D322CB4
:1008600000304006031D3F2C32308312370203183C
:100870003A2CB70A54308316D600F421532C00309A
:10088000831603134106031D472C01304006031D48
:10089000532C5A308312380203184F2CB80A4830B0
:1008A0008316D600F421A02C83120313881E8E2CED
:1008B0000230FB000430FC00BA30FD00FD0B5E2C62
:1008C000FC0B5E2CFB0B5E2C0000003083164106F7
:1008D000031D6C2C00304006031D792C8312370851
:1008E000003C0318742CB70354308316D600F4214F
:1008F0008D2C0030831603134106031D812C01301B
:100900004006031D8D2C83123808143C0318892CD3
:10091000B80348308316D600F421A02C83120313A9
:10092000081FA02C081F952C922C64308316D6002B
:100930000030D7000130D8000030D9005123A12C5D
:100940001A2C83160313C00A0319C10AF82B0230AC
:10095000D600831237088316D700D1210330031342
:10096000D600831238088316D700D121CA2B08007D
:1009700083120313EF0172217008013A031DE02C6A
:1009800090217008EF00CF2C0130BB00E02CBB01A0
:10099000E02C0130BC00E02CBC01E02CE02C6F0806
:1009A000433A0319C42C6F08443A0319C72C6F0843
:1009B000533A0319C92C6F08553A0319CC2CCE2C85
:0209C00008002D
:1009C200543083160313C0003030C1003030C200EF
:1009D2004130C3003030C4003030C5004830C6005A
:1009E2003030C7003030C8004230C9003030CA0051
:1009F2003030CB005330CC003030CD003030CE0020
:100A02003030CF004530D0003030D1004630D200F7
:100A12000A30D3000D30D400D5010A30F40083121D
:100A22003908F000AE207008EF006F08F0000A30BD
:100A3200F400B82170083902F00030306F078316D5
:100A4200C10030307007C2000A30F4008312370848
:100A5200F000AE207008EF006F08F0000A30F400DA
:100A6200B82170083702F00030306F078316C400D7
:100A720030307007C5000A30F40083123A08F000E3
:100A8200AE207008EF006F08F0000A30F400B821C1
:100A920070083A02F00030306F078316C70030301A
:100AA2007007C8000A30F40083123808F000AE2044
:100AB2007008EF006F08F0000A30F400B8217008E7
:100AC2003802F00030306F078316CA0030307007EA
:100AD200CB0000308312881801308316CD003030ED
:100AE200CD0700308312081901308316CE00303052
:100AF200CE0700308312881901308316CF003030C0
:100B0200CF073030831226078316D100C030D600BB
:040B1200792108003D
:100B160083120313EF018316C901CA01CB01CC016D
:100B2600CD010A30CE000030CF008312B901BA01E0
:100B360083160810831208140630FD00FD0BA12D44
:100B4600000008101830FC005F30FD00FD0BA92DD9
:100B5600FC0BA92D08140730FD00FD0BB02D8316E4
:100B660008140330FD00FD0BB62D8312081CBE2DA4
:100B7600FF30F000D32E1A30FD00FD0BC02D000013
:100B86000818C82DFF30F000D32E1A30FD00FD0BDB
:100B9600CA2D0000EF0105306F0203180E2E8316D2
:100BA600C9010830490203180B2E83120818DC2DE0
:100BB600D82D0930FD00FD0BDE2D00000000081CBD
:100BC600F42D6F08C03EF300730884000008F2009D
:100BD6007208F000F00D701070147308840070082D
:100BE60080000818052E6F08C03EF30073088400C5
:100BF6000008F2007208F000F00D7010730884000F
:100C060070088000081C082E052E8316C90AD42DEC
:100C16008312EF0ACE2D831608108312081483164A
:100C260041084007F000F1010318F10A4208F007F5
:100C36000318F10A43087007F20071080318013E11
:100C4600F30000307306031D2A2E44087206031DA6
:100C5600D12E4008CA00CB014208CC00CD010A3093
:100C6600CE000030CF008312EF0102306F0203186E
:100C7600742E6F08C53E8316D0004E08F4004F0848
:100C8600F5004A08F0004B08F1009B218316500836
:100C960084007008800083126F08C53E8400000837
:100CA600F0000030F10083164E08F4004F08F500FE
:100CB600262370088316CA02031CCB037108CB02D5
:100CC6000A30F4000030F5004E08F0004F08F1003D
:100CD6009B2170088316CE007108CF008312EF0A9D
:100CE600382E0A308316CE000030CF000230831231
:100CF600EF0004306F020318B82E6F08C53E831646
:100D0600D0004E08F4004F08F5004C08F0004D08DE
:100D1600F1009B218316500884007008800083121E
:100D26006F08C53E84000008F0000030F10083160D
:100D36004E08F4004F08F500262370088316CC02EF
:100D4600031CCD037108CD020A30F4000030F50013
:100D56004E08F0004F08F1009B2170088316CE0064
:100D66007108CF008312EF0A7C2E83164708F00025
:100D76000A30F400B8218316480870078312B900B8
:100D860083164508F0000A30F400B8218316460899
:100D960070078312BA000130F000D32EFF30F00046
:020DA600080043
:100DA800A7208A110A128000840ABE0A0319BF0A02
:080DB800F003031DD42E080016
:100DC00083160313981690308312980083168717A2
:100DD000071383128C1EEF2E1A08F000E92E08006C
:100DE000831203136F0803178D0083168C130C14E2
:080DF00083120C08F00008005A
:100DF8008316031386120612061086100611861132
:100E080083128612061286110611861006100B2010
:100E18000B200B20861406148616162086120B202B
:100E28008616162086120B208616162086120B2090
:100E380006108616162086120B2086161620861295
:100E4800861086158616162086120B208611061423
:100E580086161620861206108616162086120B2075
:100E680086161620861206148616162086120B2061
:100E78000610861616208612861506158614061480
:0C0E88008616162086120B206E1408003F
:100E94008A154C208A118316031788018901E030D2
:100EA4000313880085018312850101308800FC2624
:100EB4000C308316E50018200230EF00F02670088D
:100EC4000313B7000330EF00F02670080313B800D3
:100ED4001930831699001815E02658308316D60069
:100EE4000230D7000130D8000030D90051238B25BF
:100EF400831203137008013A031D882F49308316A7
:100F0400D600F42183120313A601A52F45308316BE
:100F1400D600F421013083120313A600C8308316CF
:100F2400D600D7010330D8000030D9005123033054
:100F3400FB000830FC007730FD00FD0B9F2FFC0BFD
:100F44009F2FFB0B9F2FE1248312DA01DB01033077
:100F54005B02031DAF2FE8305A020318C02F023082
:100F6400FC004B30FD00FD0BB52FFC0BB52FB82456
:100F7400C0239023DA0A0319DB0AA92F792FC12F82
:10109800203084004C3083120313F0000030831694
:1010A800BE000830BF008A11D4268A15A0308400FB
:1010B8001A30F000C5308316BE000730BF008A1111
:1010C800D4268A156C3084000230F000EB30831689
:1010D800BE000730BF008A11D4268A15BA308400B2
:1010E8000430F000E7308316BE000730BF008A11D5
:0610F800D4268A15080051
:100F8A004534523452344F34523420344434483481
:080F9A005434313431340034C9
:100FA20043344F344E344634493447345534523442
:0C0FB2004134433449344F344E34003491
:100FBE00003400340134033416341C340834003445
:080FCE005B3458345D3400343B
:040FD6007834003437
:0610000048343D340034C9
:0610060043347C34003489
:02100C000034AE
:06100E0054343D340034AF
:08101400533450343D34003424
:04101C007C340034EC
:0610200025347C3400348D
:08102600533450343D34003412
:02102E0000348C
:0210300000348A
:02103200003488
:02103400003486
:02103600003484
:02103800003482
:04103A004334003407
:10103E002D34483455344D344534443441344434DD
:04104E002D34003409
:101052002D34543445344D345034453452344134B3
:0C10620054345534523441342D340034E1
:06106E003C343E34003466
:041074000034003410
:061078003C343E3400345C
:04107E0025340034E1
:081082005334553442340034AC
:02108A00003430
:04108C007C3400347C
:081090005234453444340034AD
:04400E00F42F000784
:00000001FF
