:040000008A15002835
:10000600103083120313FD00FD0B072800000800C3
:10001600083083120313FC002330FD00FD0B11286A
:06002600FC0B112808008C
:04002C0000000800C8
:1000300083160313E61B1F288312861121288312BF
:1000400086158316661B272883120611292883121A
:1000500006158316E61A2F2883128610312883127C
:1000600086148316661A37288312061039288312DD
:1000700006146F183D2806163E280612861616200E
:1000800086128316E619472883128611492883129F
:100090008615831666194F2883120611512883127C
:1000A00006158316E61857288312861059288312DE
:1000B0008614831666185F2883120610612883123F
:1000C00006146F186528061666280612861616206E
:0E00D00086126F1C6D280B206E28032008007E
:1000DE008128803083160313E3009428C030E30098
:1000EE0094289430E3009428D430E3009428803090
:1000FE00E3009428831603136308013A031970284A
:10010E006308023A031975286308033A031978281D
:10011E006308043A03197B287E286403F000630801
:10012E00F0077008E30083126F1470088316E60060
:10013E0018206F1083166508E60018206F1408004B
:0E014E00831603133F088A003E088200080053
:10015C0083120313F8010830FC00700DF80D7408BD
:10016C00F8020318BB28F8070310F00DFC0BB3289A
:02017C00080079
:10017E00831203136F1083166308E60018206F14A2
:02018E00080067
:10019000831603139818CE280000C8285F0883121E
:0401A00099000800BA
:1001A400403083160313E60018208316E10161082A
:1001B400073C031CF0286108B73EF0000730031821
:1001C400013EF1007008BE007108BF00A7208A112B
:1001D4000A12E300BF208316E10AD9280230E600A0
:1001E400182083165F08E3006008E400E5016F202F
:0201F400080001
:1001F6000D29803083160313DF002029C030DF006D
:1002060020299430DF002029D430DF0020298030D7
:10021600DF002029831603135F08013A0319FC281F
:100226005F08023A031901295F08033A03190429F2
:100236005F08043A031907290A296003F0005F08DA
:10024600F0077008DF007008E60018206F108316AC
:10025600E201620861078400000803193B2962086D
:10026600610784000008E300BF208316E20A2C29F8
:0602760083126F14080062
:10027C0083160313E1010330610203184C29610852
:10028C006007840020308000E10A41296108600782
:10029C0084008001E10361086007E2000A30F40089
:1002AC005F08F000AE207808F0003030F0078316BD
:1002BC0062088400700880000A30F4005F08F000C7
:1002CC00AE2070088316DF007008003A031D6F29FA
:0802DC007129E103512908001A
:0E02E4000030831203138C1A0130F000080062
:1002F20083160313D901570884000008D800580850
:10030200003A03198F295808DF00C8208316D90A3A
:0E0312005908570784000008D8008029080009
:10032000831203131A08F100981C98291812181642
:060330007108F000080056
:1003360083120313F801F9011030FC00710DF80D5A
:10034600F90D7408F8027508031C750FF9020318F5
:10035600B3297408F80775080318750FF907031011
:0A036600F00DF10DFC0BA1290800B9
:10037000831203137008F100F0010830FC007108CB
:10038000F40C0318C729FC0BC029F1010034031039
:10039000CC29F40C0318F107F10CF00CFC0BC92963
:0203A000080053
:1003A200831603178C1CD7290000D1290313570881
:1003B200831203178D008316031358088312031741
:1003C2008C0083168C130C150B08F0008B13553020
:1003D2008D00AA308D008C14F01BF1298B13F229A9
:0603E2008B170C1108004E
:1003E800013083160313E60018200C308316E6004C
:1003F80018200F2B83123E088316DF00D830E00048
:100408003E210130DF000230E000D830E100FB205F
:100418003B088316DF00D830E0003E210230DF00C1
:100428000230E000D830E100FB2001308316DF0005
:100438000130E0002630E100FB2002308316DF00A7
:100448000130E0002930E100FB2001308316DF0095
:100458000530E0002030E100FB2002308316DF0089
:100468000530E0002330E100FB203A088316DF0066
:10047800D830E0003E210130DF000930E000D830FC
:10048800E100FB2038088316DF00D830E0003E2169
:100498000230DF000930E000D830E100FB200130F5
:1004A8008316DF000730E0003030E100FB20023027
:1004B8008316DF000730E0003430E100FB20013014
:1004C8008316DF000C30E0002C30E100FB20023006
:1004D8008316DF000C30E0002E30E100FB200130F5
:1004E8008316DF000D30E0005930E100FB200230B8
:1004F8008316DF000D30E0005D30E100FB20390895
:1005080003198D2A01308316DF001030E000D22055
:10051800952A01308316DF001030E0005630E100E4
:10052800FB203D0803199F2A02308316DF00103094
:10053800E000D220A72A02308316DF001030E00046
:100548005730E100FB20252B01308316DF000830EF
:10055800E000AE30E100FB2002308316DF000430FB
:10056800E000B230E100FB20252B01308316DF00CC
:100578000330E0006130E100FB20252B01308316B9
:10058800DF000330E000A030E100FB2002308316DA
:10059800DF000130E0004C30E100FB200230831620
:1005A800DF001030E0004F30E100FB203A088316EE
:1005B800DF00D830E0003E210230DF000D30E000DF
:1005C800D830E100FB20252B01308316DF000430F2
:1005D800E0003F30E100FB2002308316DF000130ED
:1005E800E0004930E100FB2002308316DF001030C4
:1005F800E0005330E100FB2038088316DF00D830D4
:10060800E0003E210230DF000D30E000D830E1008C
:10061800FB20252B252B83165708493A0319FE2959
:100628005708453A0319A82A5708433A0319B92A1B
:100638005708543A0319C22A5708483A0319E82AAE
:040648000E2B08006D
:10064C0083120313FB01FA01F9018030F800F10C5D
:10065C00F00C031C3A2B7408F90775080318750F76
:10066C00FA070318FB0A0310F01F422B7408FA0751
:10067C0075080318750FFB07FB0CFA0CF90CF80C3A
:10068C00031C2D2B7B08F3007A08F2007908F1008B
:06069C007808F0000800E0
:1006A20083160313DB01DC01DD01DE01DD01DE0166
:1006B2005A085E02031D5F2B59085D0203188F2B37
:1006C200831205148316DB01DC0158085C02031D4A
:1006D2006C2B57085B0203187A2B0230FC004B305C
:1006E200FD00FD0B722BFC0B722BDB0A0319DC0ADB
:1006F200662B831205108316DB01DC0158085C02AD
:10070200031D852B57085B0203188B2BDB0A031989
:0E071200DC0A7F2BDD0A0319DE0A592B0800D2
:10072000831203133C08003A031DBC2B3E083A0613
:10073000031D9D2B08118810AA2B3A083E020318AE
:10074000A42B08158810AA2B3E083A020318AA2BDE
:10075000081188143B083806031DB02B8811BB2BE9
:1007600038083B020318B62B8815BB2B3B08380210
:100770000318BB2B8811BF2B8811081188100800A3
:1007800083160313C001C1018312081FB72C8316FF
:10079000C001C10183120313081FB72C0D30FC00E8
:1007A000FB30FD00FD0BD22BFC0BD22B0000000018
:1007B0008316C00A0319C10A00304102031DE22B4F
:1007C00064304002031CB62C4330D700F421F430CF
:1007D00083160313D7000130D8000130D900003050
:1007E000DA005123C001C1018312081FF82BF42B3A
:1007F000003083164102031DFF2B02304002031814
:10080000A72C00304106031D072C00304006031DB5
:100810000D2C5430D700F4211A2C0030831603130A
:100820004106031D152C01304006031D1A2C4830CB
:10083000D700F42183120313881F542C0230FB00CD
:100840000430FC00BA30FD00FD0B242CFC0B242CE2
:10085000FB0B242C0000003083164106031D322CB4
:1008600000304006031D3F2C323083123A02031839
:100870003A2CBA0A54308316D700F421532C003096
:10088000831603134106031D472C01304006031D48
:10089000532C5A308312380203184F2CB80A4830B0
:1008A0008316D700F421A02C83120313881E8E2CEC
:1008B0000230FB000430FC00BA30FD00FD0B5E2C62
:1008C000FC0B5E2CFB0B5E2C0000003083164106F7
:1008D000031D6C2C00304006031D792C83123A084E
:1008E000003C0318742CBA0354308316D700F4214B
:1008F0008D2C0030831603134106031D812C01301B
:100900004006031D8D2C83123808143C0318892CD3
:10091000B80348308316D700F421A02C83120313A8
:10092000081FA02C081F952C922C64308316D7002A
:100930000030D8000130D9000030DA005123A12C5A
:100940001A2C83160313C00A0319C10AF82B0230AC
:10095000D70083123A088316D800D121033003133D
:10096000D700831238088316D800D121CA2B08007B
:1009700083160313C00172217008013A031DE62C8F
:10098000902170088316C000D42C01308312B90066
:10099000E62C8312B901E62C83120130BD00E62C4F
:1009A0008312BD01E62CE62C83164008433A031956
:1009B000C52C4008443A0319C92C4008533A03197E
:0E09C000CC2C4008553A0319D02CD32C08003B
:1009CE00543083160313C0003030C1003030C200E3
:1009DE004130C3003030C4003030C5004830C6004E
:1009EE003030C7003030C8004230C9003030CA0045
:1009FE003030CB005330CC003030CD003030CE0014
:100A0E003030CF004530D0003030D1004630D200EB
:100A1E000A30D3000D30D400D5010A30F400831211
:100A2E003E08F000AE2070088316D6005608F0007F
:100A3E000A30F400B82170083E02F0003030831600
:100A4E005607C10030307007C2000A30F40083121E
:100A5E003A08F000AE2070088316D6005608F00053
:100A6E000A30F400B82170083A02F00030308316D4
:100A7E005607C40030307007C5000A30F4008312E8
:100A8E003B08F000AE2070088316D6005608F00022
:100A9E000A30F400B82170083B02F00030308316A3
:100AAE005607C70030307007C8000A30F4008312B2
:100ABE003808F000AE2070088316D6005608F000F5
:100ACE000A30F400B82170083802F0003030831676
:100ADE005607CA0030307007CB00003083128818DA
:100AEE0001308316CD003030CD0700308312081947
:100AFE0001308316CE003030CE07003083128819B5
:100B0E0001308316CF003030CF07303083123C07D0
:0C0B1E008316D100C030D70079210800F8
:100B2A0083160313C901CA01CB01CC01CD01CE0141
:100B3A000A30CF000030D0008312BE01BB018316F9
:100B4A000810831208140630FD00FD0BAA2D0000C0
:100B5A0008101830FC005F30FD00FD0BB22DFC0BB5
:100B6A00B22D08140730FD00FD0BB92D83160814A9
:100B7A000330FD00FD0BBF2D8312081CC72DFF306B
:100B8A00F000D22E1A30FD00FD0BC92D0000081806
:100B9A00D12DFF30F000D22E1A30FD00FD0BD32DDF
:100BAA0000008316C9010530490203181A2ECA012A
:100BBA0008304A020318182E83120818E52DE12D71
:100BCA000930FD00FD0BE72D00000000081CFE2D7A
:100BDA0083164908C03EF300730884000008F20037
:100BEA007208F000F00D7010701473088400700819
:100BFA00800083120818112E83164908C03EF3009C
:100C0A00730884000008F2007208F000F00D7010FA
:100C1A0073088400700880008312081C152E112E98
:100C2A008316CA0ADD2DC90AD82D081083120814A2
:100C3A00831641084007F000F1010318F10A42083F
:100C4A00F0070318F10A43087007F2007108031845
:100C5A00013EF30000307306031D352E4408720668
:100C6A00031DD02E4008CB00CC014208CD00CE0196
:100C7A000A30CF000030D000C901023049020318FF
:100C8A007A2E4908C53ED1004F08F4005008F500F5
:100C9A004B08F0004C08F1009B2183165108840090
:100CAA00700880004908C53E84000008F000003042
:100CBA00F1004F08F4005008F50026237008831647
:100CCA00CB02031CCC037108CC020A30F4000030BA
:100CDA00F5004F08F0005008F1009B2170088316B8
:100CEA00CF007108D000C90A422E0A30CF00003066
:100CFA00D0000230C900043049020318B82E49084E
:100D0A00C53ED1004F08F4005008F5004D08F00028
:100D1A004E08F1009B218316510884007008800058
:100D2A004908C53E84000008F0000030F1004F0871
:100D3A00F4005008F500262370088316CD02031C20
:100D4A00CE037108CE020A30F4000030F5004F08D5
:100D5A00F0005008F1009B2170088316CF0071083B
:100D6A00D000C90A802E4708F0000A30F400B821E2
:100D7A008316480870078312BE0083164508F000E0
:100D8A000A30F400B8218316460870078312BB00A4
:0C0D9A000130F000D22EFF30F000080005
:100DA600A7208A110A128000840ABE0A0319BF0A04
:080DB600F003031DD32E080019
:100DBE0083160313981690308312980083168717A4
:100DCE00071383128C1EEE2E1A08F000E82E080070
:100DDE00831603134008831203178D0083168C139A
:0A0DEE000C1483120C08F00008003A
:100DF8008316031386120612061086100611861132
:100E080083128612061286110611861006100B2010
:100E18000B200B20861406148616162086120B202B
:100E28008616162086120B208616162086120B2090
:100E380006108616162086120B2086161620861295
:100E4800861086158616162086120B208611061423
:100E580086161620861206108616162086120B2075
:100E680086161620861206148616162086120B2061
:100E78000610861616208612861506158614061480
:0C0E88008616162086120B206F1408003E
:100F8000203084004F3083120313F0004A30831660
:100F9000BE000730BF00D326A03084001E3083126D
:100FA0000313F00099308316BE000730BF00D3262C
:020FB000080037
:101000008A11C0278A158316031788018901E030E9
:1010100003138800850183128501013088008A113D
:10102000FC268A150C308316E6008A1118208A15D2
:1010300002308316C0008A11EF268A157008031348
:10104000BA0003308316C0008A11EF268A15700893
:101050000313B80019308316990018158A11DF267A
:101060008A1558308316D7000230D8000130D900D5
:101070000030DA008A1151238A158A1195258A15C4
:10108000831203137008013A031D50284930831658
:10109000D7008A11F4218A1583120313BC01712829
:1010A00045308316D7008A11F4218A150130831246
:1010B0000313BC00C8308316D700D8010330D90011
:1010C0000030DA008A1151238A150330FB00083002
:1010D000FC007730FD00FD0B6B28FC0B6B28FB0B35
:1010E0006B28033083125502031C7B288A11E724E6
:1010F0008A158312D501D101D20103305202031D9A
:101100008328E830510203189A280230FC004B3043
:10111000FD00FD0B8928FC0B89288A11B8248A154B
:101120008A11C0238A158A1190238A15D10A0319BE
:0A113000D20A7D28D50A3D289C282C
:060E940043347C340034FD
:060E9A0025347C34003415
:060EA00054343D3400341F
:060EA60048343D34003425
:040EAC007C3400345E
:040EB0007C3400345A
:080EB400533450343D34003486
:080EBC00533450343D3400347E
:020EC4000034F8
:020EC6000034F6
:020EC8000034F4
:020ECA000034F2
:020ECC000034F0
:020ECE000034EE
:020ED0000034EC
:100ED2002D34483455344D3445344434413444344B
:040EE2002D34003477
:060EE6003C343E340034F0
:060EEC003C343E340034EA
:040EF2004334003451
:040EF6000034003490
:040EFA002534003467
:020EFE000034BE
:020F00000034BB
:040F0200783400340B
:080F0600523445344434003438
:080F0E00533455344234003421
:100F160043344F344E3446344934473455345234CE
:0C0F26004134433449344F344E3400341D
:100F32002D34543445344D345034453452344134D4
:0C0F420054345534523441342D34003402
:080F4E005B3458345D340034BB
:100F56004534523452344F345234203444344834B5
:080F66005434313431340034FD
:100F6E00003400340134033416341C340834003495
:04400E00F42F000784
:00000001FF
